{
  "contractName": "MyCoin",
  "abi": [
    {
      "constant": true,
      "inputs": [
        {
          "internalType": "address",
          "name": "",
          "type": "address"
        }
      ],
      "name": "balanceOf",
      "outputs": [
        {
          "internalType": "uint256",
          "name": "",
          "type": "uint256"
        }
      ],
      "payable": false,
      "stateMutability": "view",
      "type": "function"
    },
    {
      "constant": true,
      "inputs": [
        {
          "internalType": "address",
          "name": "",
          "type": "address"
        }
      ],
      "name": "balanceToReceive",
      "outputs": [
        {
          "internalType": "uint256",
          "name": "total",
          "type": "uint256"
        }
      ],
      "payable": false,
      "stateMutability": "view",
      "type": "function"
    },
    {
      "constant": true,
      "inputs": [
        {
          "internalType": "address",
          "name": "",
          "type": "address"
        }
      ],
      "name": "balanceToSend",
      "outputs": [
        {
          "internalType": "uint256",
          "name": "total",
          "type": "uint256"
        }
      ],
      "payable": false,
      "stateMutability": "view",
      "type": "function"
    },
    {
      "constant": true,
      "inputs": [
        {
          "internalType": "string",
          "name": "str",
          "type": "string"
        }
      ],
      "name": "getHash",
      "outputs": [
        {
          "internalType": "bytes32",
          "name": "",
          "type": "bytes32"
        }
      ],
      "payable": false,
      "stateMutability": "pure",
      "type": "function"
    },
    {
      "constant": true,
      "inputs": [
        {
          "internalType": "bytes32",
          "name": "_messageHash",
          "type": "bytes32"
        }
      ],
      "name": "getEthSignedHash",
      "outputs": [
        {
          "internalType": "bytes32",
          "name": "",
          "type": "bytes32"
        }
      ],
      "payable": false,
      "stateMutability": "pure",
      "type": "function"
    },
    {
      "constant": true,
      "inputs": [
        {
          "internalType": "bytes32",
          "name": "_ethSignedMessageHash",
          "type": "bytes32"
        },
        {
          "internalType": "bytes",
          "name": "_signature",
          "type": "bytes"
        }
      ],
      "name": "verify",
      "outputs": [
        {
          "internalType": "address",
          "name": "",
          "type": "address"
        }
      ],
      "payable": false,
      "stateMutability": "pure",
      "type": "function"
    },
    {
      "constant": false,
      "inputs": [
        {
          "internalType": "address",
          "name": "receiver",
          "type": "address"
        },
        {
          "internalType": "uint256",
          "name": "amount",
          "type": "uint256"
        }
      ],
      "name": "transfert",
      "outputs": [
        {
          "internalType": "bool",
          "name": "",
          "type": "bool"
        }
      ],
      "payable": false,
      "stateMutability": "nonpayable",
      "type": "function"
    },
    {
      "constant": false,
      "inputs": [
        {
          "internalType": "uint256",
          "name": "amount",
          "type": "uint256"
        }
      ],
      "name": "mint",
      "outputs": [],
      "payable": false,
      "stateMutability": "nonpayable",
      "type": "function"
    },
    {
      "constant": false,
      "inputs": [
        {
          "internalType": "address",
          "name": "owner",
          "type": "address"
        },
        {
          "internalType": "uint256",
          "name": "amount",
          "type": "uint256"
        }
      ],
      "name": "mintAddress",
      "outputs": [],
      "payable": false,
      "stateMutability": "nonpayable",
      "type": "function"
    },
    {
      "constant": false,
      "inputs": [
        {
          "internalType": "address",
          "name": "receiver",
          "type": "address"
        },
        {
          "internalType": "address",
          "name": "sender",
          "type": "address"
        },
        {
          "internalType": "bytes",
          "name": "_signature",
          "type": "bytes"
        },
        {
          "internalType": "uint256",
          "name": "productId",
          "type": "uint256"
        }
      ],
      "name": "transfertWithSignature",
      "outputs": [
        {
          "internalType": "bool",
          "name": "",
          "type": "bool"
        }
      ],
      "payable": false,
      "stateMutability": "nonpayable",
      "type": "function"
    },
    {
      "constant": false,
      "inputs": [
        {
          "internalType": "address",
          "name": "receiver",
          "type": "address"
        },
        {
          "internalType": "address",
          "name": "sender",
          "type": "address"
        },
        {
          "internalType": "uint256",
          "name": "productId",
          "type": "uint256"
        },
        {
          "internalType": "uint256",
          "name": "amount",
          "type": "uint256"
        }
      ],
      "name": "blockAmount",
      "outputs": [],
      "payable": false,
      "stateMutability": "nonpayable",
      "type": "function"
    },
    {
      "constant": true,
      "inputs": [
        {
          "internalType": "address",
          "name": "retailerAddr",
          "type": "address"
        }
      ],
      "name": "balance",
      "outputs": [
        {
          "internalType": "uint256",
          "name": "",
          "type": "uint256"
        }
      ],
      "payable": false,
      "stateMutability": "view",
      "type": "function"
    },
    {
      "constant": true,
      "inputs": [
        {
          "internalType": "address",
          "name": "retailerAddr",
          "type": "address"
        }
      ],
      "name": "balanceToReceiveBlocked",
      "outputs": [
        {
          "internalType": "uint256",
          "name": "",
          "type": "uint256"
        }
      ],
      "payable": false,
      "stateMutability": "view",
      "type": "function"
    },
    {
      "constant": true,
      "inputs": [
        {
          "internalType": "address",
          "name": "retailerAddr",
          "type": "address"
        }
      ],
      "name": "balanceToSendBlocked",
      "outputs": [
        {
          "internalType": "uint256",
          "name": "",
          "type": "uint256"
        }
      ],
      "payable": false,
      "stateMutability": "view",
      "type": "function"
    }
  ],
  "bytecode": "0x608060405234801561001057600080fd5b50611583806100206000396000f3fe608060405234801561001057600080fd5b50600436106100ea5760003560e01c8063a0712d681161008c578063be0717c111610066578063be0717c1146102a7578063c4c89c81146102d7578063d898771c14610307578063e3d670d714610323576100ea565b8063a0712d681461022b578063a884af1314610247578063bb6d62f614610277576100ea565b806346168630116100c8578063461686301461017f5780635b6beeb91461019b57806366b6e0ba146101cb57806370a08231146101fb576100ea565b8063258ae582146100ef5780632f4ea5ea1461011f5780634362c1161461014f575b600080fd5b6101096004803603610104919081019061103f565b610353565b60405161011691906112b3565b60405180910390f35b61013960048036036101349190810190611016565b6103c2565b60405161014691906112e9565b60405180910390f35b61016960048036036101649190810190610fda565b6103f2565b60405161017691906112ce565b60405180910390f35b61019960048036036101949190810190610f77565b610496565b005b6101b560048036036101b09190810190611093565b6106df565b6040516101c291906112e9565b60405180910390f35b6101e560048036036101e09190810190610ed3565b61070f565b6040516101f29190611389565b60405180910390f35b61021560048036036102109190810190610ed3565b61075b565b6040516102229190611389565b60405180910390f35b610245600480360361024091908101906110d4565b610773565b005b610261600480360361025c9190810190610ed3565b6107c2565b60405161026e9190611389565b60405180910390f35b610291600480360361028c9190810190610ed3565b61080e565b60405161029e9190611389565b60405180910390f35b6102c160048036036102bc9190810190610ed3565b61082c565b6040516102ce9190611389565b60405180910390f35b6102f160048036036102ec9190810190610efc565b61084a565b6040516102fe91906112ce565b60405180910390f35b610321600480360361031c9190810190610fda565b610bee565b005b61033d60048036036103389190810190610ed3565b610c3e565b60405161034a9190611389565b60405180910390f35b60008060008061036285610c86565b9250925092506001868285856040516000815260200160405260405161038b9493929190611304565b6020604051602081039080840390855afa1580156103ad573d6000803e3d6000fd5b50505060206040510351935050505092915050565b6000816040516020016103d5919061128d565b604051602081830303815290604052805190602001209050919050565b6000816000803373ffffffffffffffffffffffffffffffffffffffff1673ffffffffffffffffffffffffffffffffffffffff16815260200190815260200160002060008282540392505081905550816000808573ffffffffffffffffffffffffffffffffffffffff1673ffffffffffffffffffffffffffffffffffffffff168152602001908152602001600020600082825401925050819055506001905092915050565b806000808573ffffffffffffffffffffffffffffffffffffffff1673ffffffffffffffffffffffffffffffffffffffff168152602001908152602001600020541015610517576040517f08c379a000000000000000000000000000000000000000000000000000000000815260040161050e90611369565b60405180910390fd5b806000808573ffffffffffffffffffffffffffffffffffffffff1673ffffffffffffffffffffffffffffffffffffffff1681526020019081526020016000206000828254039250508190555080600260008673ffffffffffffffffffffffffffffffffffffffff1673ffffffffffffffffffffffffffffffffffffffff1681526020019081526020016000206001016000828254019250508190555080600260008673ffffffffffffffffffffffffffffffffffffffff1673ffffffffffffffffffffffffffffffffffffffff1681526020019081526020016000206000016105ff84610cc9565b60405161060c9190611276565b90815260200160405180910390208190555080600160008573ffffffffffffffffffffffffffffffffffffffff1673ffffffffffffffffffffffffffffffffffffffff16815260200190815260200160002060000161066a84610cc9565b6040516106779190611276565b90815260200160405180910390208190555080600160008573ffffffffffffffffffffffffffffffffffffffff1673ffffffffffffffffffffffffffffffffffffffff1681526020019081526020016000206001016000828254019250508190555050505050565b6000816040516020016106f29190611276565b604051602081830303815290604052805190602001209050919050565b6000600260008373ffffffffffffffffffffffffffffffffffffffff1673ffffffffffffffffffffffffffffffffffffffff168152602001908152602001600020600101549050919050565b60006020528060005260406000206000915090505481565b806000803373ffffffffffffffffffffffffffffffffffffffff1673ffffffffffffffffffffffffffffffffffffffff1681526020019081526020016000206000828254019250508190555050565b6000600160008373ffffffffffffffffffffffffffffffffffffffff1673ffffffffffffffffffffffffffffffffffffffff168152602001908152602001600020600101549050919050565b60016020528060005260406000206000915090508060010154905081565b60026020528060005260406000206000915090508060010154905081565b60008061085e61085984610cc9565b6106df565b9050600061086b826103c2565b905060006108798287610353565b90508673ffffffffffffffffffffffffffffffffffffffff168173ffffffffffffffffffffffffffffffffffffffff16146108e9576040517f08c379a00000000000000000000000000000000000000000000000000000000081526004016108e090611349565b60405180910390fd5b600260008973ffffffffffffffffffffffffffffffffffffffff1673ffffffffffffffffffffffffffffffffffffffff16815260200190815260200160002060000161093486610cc9565b6040516109419190611276565b9081526020016040518091039020546000808a73ffffffffffffffffffffffffffffffffffffffff1673ffffffffffffffffffffffffffffffffffffffff16815260200190815260200160002060008282540192505081905550600260008973ffffffffffffffffffffffffffffffffffffffff1673ffffffffffffffffffffffffffffffffffffffff1681526020019081526020016000206000016109e686610cc9565b6040516109f39190611276565b908152602001604051809103902054600260008a73ffffffffffffffffffffffffffffffffffffffff1673ffffffffffffffffffffffffffffffffffffffff168152602001908152602001600020600101600082825403925050819055506000600260008a73ffffffffffffffffffffffffffffffffffffffff1673ffffffffffffffffffffffffffffffffffffffff168152602001908152602001600020600001610a9e87610cc9565b604051610aab9190611276565b908152602001604051809103902081905550600160008873ffffffffffffffffffffffffffffffffffffffff1673ffffffffffffffffffffffffffffffffffffffff168152602001908152602001600020600001610b0886610cc9565b604051610b159190611276565b908152602001604051809103902054600160008973ffffffffffffffffffffffffffffffffffffffff1673ffffffffffffffffffffffffffffffffffffffff168152602001908152602001600020600101600082825403925050819055506000600160008973ffffffffffffffffffffffffffffffffffffffff1673ffffffffffffffffffffffffffffffffffffffff168152602001908152602001600020600001610bc087610cc9565b604051610bcd9190611276565b90815260200160405180910390208190555060019350505050949350505050565b806000808473ffffffffffffffffffffffffffffffffffffffff1673ffffffffffffffffffffffffffffffffffffffff168152602001908152602001600020600082825401925050819055505050565b60008060008373ffffffffffffffffffffffffffffffffffffffff1673ffffffffffffffffffffffffffffffffffffffff168152602001908152602001600020549050919050565b60008060006041845114610c9957600080fd5b60008060006020870151925060408701519150606087015160001a90508282829550955095505050509193909250565b60606000821415610d11576040518060400160405280600181526020017f30000000000000000000000000000000000000000000000000000000000000008152509050610de7565b600082905060005b60008214610d3b578080600101915050600a8281610d3357fe5b049150610d19565b6060816040519080825280601f01601f191660200182016040528015610d705781602001600182028038833980820191505090505b5090505b60008514610de057600182039150600a8581610d8c57fe5b0660300160f81b818381518110610d9f57fe5b60200101907effffffffffffffffffffffffffffffffffffffffffffffffffffffffffffff1916908160001a905350600a8581610dd857fe5b049450610d74565b8093505050505b919050565b600081359050610dfb816114fb565b92915050565b600081359050610e1081611512565b92915050565b600082601f830112610e2757600080fd5b8135610e3a610e35826113d1565b6113a4565b91508082526020830160208301858383011115610e5657600080fd5b610e618382846114af565b50505092915050565b600082601f830112610e7b57600080fd5b8135610e8e610e89826113fd565b6113a4565b91508082526020830160208301858383011115610eaa57600080fd5b610eb58382846114af565b50505092915050565b600081359050610ecd81611529565b92915050565b600060208284031215610ee557600080fd5b6000610ef384828501610dec565b91505092915050565b60008060008060808587031215610f1257600080fd5b6000610f2087828801610dec565b9450506020610f3187828801610dec565b935050604085013567ffffffffffffffff811115610f4e57600080fd5b610f5a87828801610e16565b9250506060610f6b87828801610ebe565b91505092959194509250565b60008060008060808587031215610f8d57600080fd5b6000610f9b87828801610dec565b9450506020610fac87828801610dec565b9350506040610fbd87828801610ebe565b9250506060610fce87828801610ebe565b91505092959194509250565b60008060408385031215610fed57600080fd5b6000610ffb85828601610dec565b925050602061100c85828601610ebe565b9150509250929050565b60006020828403121561102857600080fd5b600061103684828501610e01565b91505092915050565b6000806040838503121561105257600080fd5b600061106085828601610e01565b925050602083013567ffffffffffffffff81111561107d57600080fd5b61108985828601610e16565b9150509250929050565b6000602082840312156110a557600080fd5b600082013567ffffffffffffffff8111156110bf57600080fd5b6110cb84828501610e6a565b91505092915050565b6000602082840312156110e657600080fd5b60006110f484828501610ebe565b91505092915050565b61110681611450565b82525050565b61111581611462565b82525050565b6111248161146e565b82525050565b61113b6111368261146e565b6114f1565b82525050565b600061114c82611429565b6111568185611445565b93506111668185602086016114be565b80840191505092915050565b600061117f601c83611445565b91507f19457468657265756d205369676e6564204d6573736167653a0a3332000000006000830152601c82019050919050565b60006111bf602283611434565b91507f7369676e657220617265206e6f74207468652073656e64657220696e20696e7060008301527f75740000000000000000000000000000000000000000000000000000000000006020830152604082019050919050565b6000611225601383611434565b91507f796f7520646f6e742068617665206d6f6e6579000000000000000000000000006000830152602082019050919050565b61126181611498565b82525050565b611270816114a2565b82525050565b60006112828284611141565b915081905092915050565b600061129882611172565b91506112a4828461112a565b60208201915081905092915050565b60006020820190506112c860008301846110fd565b92915050565b60006020820190506112e3600083018461110c565b92915050565b60006020820190506112fe600083018461111b565b92915050565b6000608082019050611319600083018761111b565b6113266020830186611267565b611333604083018561111b565b611340606083018461111b565b95945050505050565b60006020820190508181036000830152611362816111b2565b9050919050565b6000602082019050818103600083015261138281611218565b9050919050565b600060208201905061139e6000830184611258565b92915050565b6000604051905081810181811067ffffffffffffffff821117156113c757600080fd5b8060405250919050565b600067ffffffffffffffff8211156113e857600080fd5b601f19601f8301169050602081019050919050565b600067ffffffffffffffff82111561141457600080fd5b601f19601f8301169050602081019050919050565b600081519050919050565b600082825260208201905092915050565b600081905092915050565b600061145b82611478565b9050919050565b60008115159050919050565b6000819050919050565b600073ffffffffffffffffffffffffffffffffffffffff82169050919050565b6000819050919050565b600060ff82169050919050565b82818337600083830152505050565b60005b838110156114dc5780820151818401526020810190506114c1565b838111156114eb576000848401525b50505050565b6000819050919050565b61150481611450565b811461150f57600080fd5b50565b61151b8161146e565b811461152657600080fd5b50565b61153281611498565b811461153d57600080fd5b5056fea365627a7a72315820b9fb0f12e74a01fcef8c5544962a303334a74e20544f8c99d6619fa1da478a5d6c6578706572696d656e74616cf564736f6c63430005100040",
  "source": "// SPDX-License-Identifier: MIT\npragma solidity >=0.4.22 <0.9.0;\npragma experimental ABIEncoderV2;\ncontract SupplyChain  {\n\n\nevent ProductLocation(uint indexed productId,  string location);\nevent ProductAdded(address indexed owner,uint  productId);\nevent ProductBuyed(address indexed owner,address indexed receiver,uint  productId);\nuint public finalID=1000; \nstring[] public productTypes=[\"Potatoes\",\"Tomatoes\",\"Strawberries\",\"Plums\",\"Peaches\",\"Eggplant\",\"Cucumber\",\"Figs\",\"Onions\",\"Apples\",\"Cherries\",\"Broccoli\",\"Grapes\",\"Kiwi\",\"Lemons\",\"Oranges\",\"Spinach\",\"Carrots\",\"Lettuce\",\"Apricots\"];\n\nmapping (uint => productListData)  farmersProductByType;\nmapping (uint => productListData)  wholesalersProductByType;\nmapping (uint => productListData)  retailersProductByType;\nmapping(uint => ProductData) public productsData ;\nmapping (address => farmersData)  farmers;\nmapping (address => wholeSalerRetailerData )  wholesalers;\nmapping (address => wholeSalerRetailerData)  retailers;\nmapping (address => customerData)  customers;\nstruct customerData{\n\nuint[] toReceive;\n}\nstruct farmersData{   \nuint[] productForSale;\n\nuint[] toSend;\n}\nstruct wholeSalerRetailerData{ \nuint[] productForSale;\n\nuint[] stock;\nuint[] toReceive;\nuint[] toSend;\n}\nstruct productListData{\n   \nuint[] productList;\n}\nstruct ProductData {\naddress owner;\nuint parent;\nuint productType ;\nuint amount;\nuint amountRemaining;\nbool isForSale;\nuint price;\nuint minQuantity;\nuint date;\n\n\n}\nfunction getHash(string memory str) public pure returns (bytes32) {\n        return keccak256(abi.encodePacked(str));\n        \n    }\n\nfunction indexInListProduct(string memory productType) public view returns ( uint){\n        bool bol;\n        uint ind;\n        (bol,ind)= retreiveIndexString(productTypes,productType);\n        return ind;\n    }\n\n\n    function farmerConfirmSending(uint productId, bytes memory signature,address coinAddress) public { \n    \n    ProductData memory product= productsData[productId];\n    address wholeSalerOwner = product.owner;\n    \n    ProductData memory parentProduct= productsData[product.parent];\n    address farmerBuyer = parentProduct.owner;\n    MyCoin( coinAddress).transfertWithSignature(farmerBuyer,wholeSalerOwner,signature, productId);\n\n    bool bol;\n    uint ind;\n    bool bool2;\n    uint ind2;\n    (bol,ind)=retreiveIndex(farmers[farmerBuyer].toSend,productId);\n    (bool2,ind2)=retreiveIndex(wholesalers[wholeSalerOwner].toReceive,productId);\n    if (bol && bol){\n            farmers[farmerBuyer].toSend[ind]=farmers[farmerBuyer].toSend[farmers[farmerBuyer].toSend.length-1];\n            farmers[farmerBuyer].toSend.pop(); \n            wholesalers[wholeSalerOwner].toReceive[ind]=wholesalers[wholeSalerOwner].toReceive[wholesalers[wholeSalerOwner].toReceive.length-1];\n            wholesalers[wholeSalerOwner].toReceive.pop();\n            wholesalers[wholeSalerOwner].stock.push(productId);\n        }\n    }\n    function wholeSalerConfirmSending(uint productId, bytes memory signature,address coinAddress) public { \n    \n    ProductData memory product= productsData[productId];\n    address RetailerOwner = product.owner;\n    \n    ProductData memory parentProduct= productsData[product.parent];\n    address wholeSalerBuyer = parentProduct.owner;\n        MyCoin( coinAddress).transfertWithSignature(wholeSalerBuyer,RetailerOwner,signature, productId);\n\n    bool bol;\n    uint ind;\n    bool bool2;\n    uint ind2;\n    (bol,ind)=retreiveIndex(wholesalers[wholeSalerBuyer].toSend,productId);\n    (bool2,ind2)=retreiveIndex(retailers[RetailerOwner].toReceive,productId);\n    if (bol && bol){\n            wholesalers[wholeSalerBuyer].toSend[ind]=wholesalers[wholeSalerBuyer].toSend[wholesalers[wholeSalerBuyer].toSend.length-1];\n            wholesalers[wholeSalerBuyer].toSend.pop(); \n            retailers[RetailerOwner].toReceive[ind]=retailers[RetailerOwner].toReceive[retailers[RetailerOwner].toReceive.length-1];\n            retailers[RetailerOwner].toReceive.pop();\n            retailers[RetailerOwner].stock.push(productId);\n        }\n    }\n    function retailerConfirmSending(uint productId, bytes memory signature,address  coinAddress) public { \n        \n    ProductData memory product= productsData[productId];\n    address customerOwner = product.owner;\n    \n    ProductData memory parentProduct= productsData[product.parent];\n    address retailerBuyer = parentProduct.owner;\n    MyCoin( coinAddress).transfertWithSignature(retailerBuyer,customerOwner,signature, productId);\n    bool bol;\n    uint ind;\n    bool bool2;\n    uint ind2;\n    (bol,ind)=retreiveIndex(retailers[retailerBuyer].toSend,productId);\n    (bool2,ind2)=retreiveIndex(customers[customerOwner].toReceive,productId);\n    if (bol && bol){\n            retailers[retailerBuyer].toSend[ind]=retailers[retailerBuyer].toSend[retailers[retailerBuyer].toSend.length-1];\n            retailers[retailerBuyer].toSend.pop(); \n            customers[customerOwner].toReceive[ind]=customers[customerOwner].toReceive[customers[customerOwner].toReceive.length-1];\n            customers[customerOwner].toReceive.pop();\n            \n        }\n    }\n    function buyProductWholesaler(uint productId,uint amount,address  coinAddress) public {\n        finalID++; \n        ProductData memory parentProduct= productsData[productId];\n        MyCoin(coinAddress).blockAmount(parentProduct.owner,msg.sender,finalID ,amount*parentProduct.price);\n        \n       \n        productsData[productId].amountRemaining-=amount;\n        uint parent =productId;\n        productsData[finalID]=ProductData({owner:msg.sender,parent:parent ,productType:parentProduct.productType,amount:amount,amountRemaining:amount,isForSale:false,price:0,minQuantity:0,date:block.timestamp});\n       // wholesalers[msg.sender].stock.push(finalID);\n        wholesalers[msg.sender].toReceive.push(finalID);\n        farmers[parentProduct.owner].toSend.push(finalID);\n         if (productsData[productId].minQuantity >productsData[productId].amountRemaining ){\nproductsData[productId].minQuantity =productsData[productId].amountRemaining;\n        }\n        if (productsData[productId].amountRemaining==0){\n            bool bol;\n            uint ind;\n            bool bool2;\n            uint ind2;\n            (bol,ind)=retreiveIndex(farmers[productsData[productId].owner].productForSale,productId);\n            (bool2,ind2)=retreiveIndex(farmersProductByType[productsData[productId].productType].productList,productId);\n        if (bol){\n            farmers[productsData[productId].owner].productForSale[ind]=farmers[productsData[productId].owner].productForSale[farmers[productsData[productId].owner].productForSale.length-1];\n            farmers[productsData[productId].owner].productForSale.pop();\n            \n        }\n         if (bool2){\n            farmersProductByType[productsData[productId].productType].productList[ind2]=farmersProductByType[productsData[productId].productType].productList[farmersProductByType[productsData[productId].productType].productList.length-1];\n             farmersProductByType[productsData[productId].productType].productList.pop();  \n         }\n        }    \n        emit ProductBuyed( parentProduct.owner, msg.sender,finalID);\n    }\n    function buyProductRetailer(uint productId,uint amount,address  coinAddress) public {\n        finalID++;\n        ProductData memory parentProduct= productsData[productId];\n        MyCoin(coinAddress).blockAmount(parentProduct.owner,msg.sender,finalID ,amount*parentProduct.price);\n\n        productsData[productId].amountRemaining-=amount;\n        uint parent =productId;\n        productsData[finalID]=ProductData({owner:msg.sender,parent:parent ,productType:parentProduct.productType,amount:amount,amountRemaining:amount,isForSale:false,price:0,minQuantity:0,date:block.timestamp});\n        //retailers[msg.sender].stock.push(finalID);\n        retailers[msg.sender].toReceive.push(finalID);\n        wholesalers[parentProduct.owner].toSend.push(finalID);\n         if (productsData[productId].minQuantity >productsData[productId].amountRemaining ){\nproductsData[productId].minQuantity =productsData[productId].amountRemaining;\n        }\n        if (productsData[productId].amountRemaining==0){\n            bool bol;\n            uint ind;\n            bool bool2;\n            uint ind2;\n            (bol,ind)=retreiveIndex(wholesalers[productsData[productId].owner].productForSale,productId);\n            (bool2,ind2)=retreiveIndex(wholesalersProductByType[productsData[productId].productType].productList,productId);\n        if (bol){\n            wholesalers[productsData[productId].owner].productForSale[ind]=wholesalers[productsData[productId].owner].productForSale[wholesalers[productsData[productId].owner].productForSale.length-1];\n            wholesalers[productsData[productId].owner].productForSale.pop();\n            \n        }\n         if (bool2){\n            wholesalersProductByType[productsData[productId].productType].productList[ind2]=wholesalersProductByType[productsData[productId].productType].productList[wholesalersProductByType[productsData[productId].productType].productList.length-1];\n             wholesalersProductByType[productsData[productId].productType].productList.pop();  \n         }\n        }  \n        emit ProductBuyed( parentProduct.owner, msg.sender,finalID);  \n    }\n function buyProductCustomers(uint productId,uint amount,address  coinAddress) public {\n        finalID++;\n        ProductData memory parentProduct= productsData[productId];\n        MyCoin(coinAddress).blockAmount(parentProduct.owner,msg.sender,finalID ,amount*parentProduct.price);\n\n        productsData[productId].amountRemaining-=amount;\n        uint parent =productId;\n        productsData[finalID]=ProductData({owner:msg.sender,parent:parent ,productType:parentProduct.productType,amount:amount,amountRemaining:amount,isForSale:false,price:0,minQuantity:0,date:block.timestamp});\n        //customers[msg.sender].history.push(finalID);\n        customers[msg.sender].toReceive.push(finalID);\n        retailers[parentProduct.owner].toSend.push(finalID);\n        if (productsData[productId].minQuantity >productsData[productId].amountRemaining ){\nproductsData[productId].minQuantity =productsData[productId].amountRemaining;\n        }\n        if (productsData[productId].amountRemaining==0){\n            bool bol;\n            uint ind;\n            bool bool2;\n            uint ind2;\n            (bol,ind)=retreiveIndex(retailers[productsData[productId].owner].productForSale,productId);\n            (bool2,ind2)=retreiveIndex(retailersProductByType[productsData[productId].productType].productList,productId);\n        if (bol){\n            retailers[productsData[productId].owner].productForSale[ind]=retailers[productsData[productId].owner].productForSale[retailers[productsData[productId].owner].productForSale.length-1];\n            retailers[productsData[productId].owner].productForSale.pop();\n            \n        }\n         if (bool2){\n            retailersProductByType[productsData[productId].productType].productList[ind2]=retailersProductByType[productsData[productId].productType].productList[retailersProductByType[productsData[productId].productType].productList.length-1];\n             retailersProductByType[productsData[productId].productType].productList.pop();  \n         }\n        }   \n        emit ProductBuyed( parentProduct.owner, msg.sender,finalID); \n    }\n    function farmersProductsListe(string memory pproductType) public view returns ( uint[] memory){\n        uint ind =indexInListProduct(pproductType);\n        return farmersProductByType[ind].productList;\n    }\n    function wholesalersProductsListe(string memory pproductType) public view returns ( uint[] memory){\n        uint ind =indexInListProduct(pproductType);\n        return wholesalersProductByType[ind].productList;\n    }\n    function retailersProductsListe(string memory pproductType) public view returns ( uint[] memory){\n        uint ind =indexInListProduct(pproductType);\n        return retailersProductByType[ind].productList;\n    }\n\n    function farmersProductsPersonal(address theFarmer,uint listType) public view returns ( uint[] memory){\n        if(listType==1) {return farmers[theFarmer].productForSale;}\n        else if(listType==3) {return farmers[theFarmer].toSend;}\n        \n        \n    }\n\n    function wholeSalerProductsPersonal(address wholeSaerAddr,uint listType) public view returns ( uint[] memory){\n         if(listType==1) {return wholesalers[wholeSaerAddr].productForSale;}\n        else if(listType==2) {return wholesalers[wholeSaerAddr].stock;}\n        else if(listType==3) {return wholesalers[wholeSaerAddr].toSend;}\n        else if(listType==4) {return wholesalers[wholeSaerAddr].toReceive;}\n        \n        \n    }\n\n    function retailerProductsPersonal(address retailerAddr,uint listType) public view returns ( uint[] memory){\n         if(listType==1) {return retailers[retailerAddr].productForSale;}\n        else if(listType==2) {return retailers[retailerAddr].stock;}\n        else if(listType==3) {return retailers[retailerAddr].toSend;}\n        else if(listType==4) {return retailers[retailerAddr].toReceive;}\n        \n        \n    }\n    function customerProductsPersonal(address theCustomer,uint listType) public view returns ( uint[] memory){\n        \n        \n    if(listType==4) {return customers[theCustomer].toReceive;}\n            \n    }\n    \n    \n   function modifyProduct(uint productId,uint amount,uint price,uint minQuantity)public {\n        \n         require(msg.sender==productsData[productId].owner,\"you are not the owner\");\n         productsData[productId].price = price;\n         productsData[productId].amount = amount;\n         productsData[productId].minQuantity = minQuantity;\n        \n        \n    }\n    \n    function farmerAddProduct(string memory pproductType,uint amount,uint price,uint minQuantity,string memory location)public {\n        \n        finalID++;\n        uint ind =indexInListProduct(pproductType);\n        farmersProductByType[ind].productList.push(finalID);\n        \n        \n\n        \n        productsData[finalID]=ProductData({owner:msg.sender,parent: 0,productType:ind,amount:amount,amountRemaining:amount,isForSale:true,price:price,minQuantity:minQuantity,date:block.timestamp});\n        farmers[msg.sender].productForSale.push(finalID);\n        emit ProductAdded(msg.sender ,finalID);\n        emit  ProductLocation(finalID, location);\n        \n    }\n   \n    \n    \n   \n   \n     function wholeSalerFromStockToSale(uint productId,uint price,uint minQuantity,string memory _location)public {\n        bool bol;\n        uint ind;\n        productsData[productId].price = price;\n        emit  ProductLocation(productId, _location);\n        \n        productsData[productId].isForSale= true;\n        productsData[productId].minQuantity = minQuantity;\n        (bol,ind)=retreiveIndex(wholesalers[msg.sender].stock,productId);\n        if (bol){\n            wholesalers[msg.sender].stock[ind]=wholesalers[msg.sender].stock[wholesalers[msg.sender].stock.length-1];\n            wholesalers[msg.sender].stock.pop();\n            wholesalers[msg.sender].productForSale.push(productId);\n            wholesalersProductByType[productsData[productId].productType].productList.push(productId);\n        }\n        emit ProductAdded(msg.sender,productId);\n    }\n    function retailerFromStockToSale(uint productId,uint price,uint minQuantity,string memory _location)public {\n        bool bol;\n        uint ind;\n        productsData[productId].price = price;\n        emit  ProductLocation(productId, _location);\n        \n        productsData[productId].isForSale= true;\n        productsData[productId].minQuantity = minQuantity;\n        (bol,ind)=retreiveIndex(retailers[msg.sender].stock,productId);\n        if (bol){\n            retailers[msg.sender].stock[ind]=retailers[msg.sender].stock[retailers[msg.sender].stock.length-1];\n            retailers[msg.sender].stock.pop();\n            retailers[msg.sender].productForSale.push(productId);\n            retailersProductByType[productsData[productId].productType].productList.push(productId);\n        }\n\n        emit ProductAdded(msg.sender,productId);\n    }\n    function retreiveIndex(uint[] memory list,uint value) public pure returns(bool b,uint u){\n        uint j=0;\n    for (uint i = 0; i < list.length; i++) {\n        if (list[i]==value){\n            b=true;\n            u=i;\n            break;\n        }  \n        j++;\n    }\n    if (j==list.length){\n        b=false;\n            u=j;\n    }\n    }\n    function compareStrings(string memory a, string memory b) public pure returns (bool) {\n    return (keccak256(abi.encodePacked((a))) == keccak256(abi.encodePacked((b))));\n}\n    function retreiveIndexString(string[] memory list,string memory value) public pure returns(bool b,uint u){\n        uint j=0;\n    for (uint i = 0; i < list.length; i++) {\n        if (compareStrings(list[i],value)){\n            b=true;\n            u=i;\n            break;\n        }  \n        j++;\n    }\n    if (j==list.length){\n        b=false;\n            u=j;\n    }\n    }\n    function productDatafromList( uint[] memory _productsId) public view returns ( ProductData[] memory){\n        ProductData[] memory productssData = new  ProductData[](_productsId.length);\n        for (uint i = 0; i < _productsId.length; i++) {\n            \n            ProductData storage productProgress = productsData[_productsId[i]];\n            productssData[i] = productProgress;\n    }\n    return productssData;\n    } \n    \n}\n\ncontract MyCoin  {\nmapping(address => uint) public balanceOf;\nmapping(address=>toSend) public balanceToSend;\nmapping(address=>toReceive) public balanceToReceive;\nstruct toSend{\nmapping (string => uint) keyAmount;\nuint total;\n}\nstruct toReceive{\nmapping (string => uint) keyAmount;\nuint total;\n}\n\nfunction toString(uint256 value) internal pure returns (string memory) {\n        // Inspired by OraclizeAPI's implementation - MIT licence\n        // https://github.com/oraclize/ethereum-api/blob/b42146b063c7d6ee1358846c198246239e9360e8/oraclizeAPI_0.4.25.sol\n        if (value == 0) {\n            return \"0\";\n        }\n        uint256 temp = value;\n        uint256 digits;\n        while (temp != 0) {\n            digits++;\n            temp /= 10;\n        }\n        bytes memory buffer = new bytes(digits);\n        while (value != 0) {\n            digits -= 1;\n            buffer[digits] = bytes1(uint8(48 + uint256(value % 10)));\n            value /= 10;\n        }\n        return string(buffer);\n    }\n    function getHash(string memory str) public pure returns (bytes32) {\n        return keccak256(abi.encodePacked(str));\n        \n    } \n    function getEthSignedHash(bytes32 _messageHash) public pure returns (bytes32) {\n        return keccak256(abi.encodePacked(\"\\x19Ethereum Signed Message:\\n32\", _messageHash));\n    }\n    function verify(bytes32 _ethSignedMessageHash, bytes memory _signature) public pure returns (address) {\n        (bytes32 r, bytes32 s, uint8 v) = splitSignature(_signature);\n        return ecrecover(_ethSignedMessageHash, v, r, s);\n    }\n    function splitSignature(bytes memory sig) internal pure returns ( bytes32, bytes32,uint8)\n    {\n    require(sig.length == 65);\n    bytes32 r;\n    bytes32 s;\n    uint8 v;\n    assembly {\n        \n        r := mload(add(sig, 32))\n        s := mload(add(sig, 64))\n        v := byte(0, mload(add(sig, 96)))\n    }\n    return (r, s, v);\n    }\n\nfunction transfert(address receiver,uint amount) public returns(bool){\n    balanceOf[msg.sender]-=amount;\n    balanceOf[receiver]+=amount;\n    return true;\n}\n\nfunction mint(uint amount) public {\n    balanceOf[msg.sender]+=amount;\n}\n\nfunction mintAddress(address owner,uint amount) public {\n    balanceOf[owner]+=amount;\n}\n\nfunction transfertWithSignature(address receiver,address sender,bytes memory _signature,uint productId) public returns(bool){\n    bytes32 hash = getHash(toString(productId));\n    bytes32 ethSignHash = getEthSignedHash(hash);\n    address signerAddress = verify(ethSignHash, _signature);\n    //ProductData memory product= productsData[productId];\n    //address wholeSalerOwner = product.owner;\n   // require(signerAddress==wholeSalerOwner, \"invalide signature\");\n    require(signerAddress== sender,\"signer are not the sender in input\");\n    balanceOf[receiver]+=balanceToReceive[receiver].keyAmount[toString(productId)];\n    balanceToReceive[receiver].total-=balanceToReceive[receiver].keyAmount[toString(productId)];\n    balanceToReceive[receiver].keyAmount[toString(productId)]=0;\n    balanceToSend[sender].total-=balanceToSend[sender].keyAmount[toString(productId)];\n    balanceToSend[sender].keyAmount[toString(productId)]=0;\n    \n    return true;\n}\n\nfunction blockAmount(address receiver,address sender,uint productId ,uint amount) public {\nrequire(balanceOf[sender]>= amount,\"you dont have money\");\nbalanceOf[sender]-=amount;\nbalanceToReceive[receiver].total+=amount;\nbalanceToReceive[receiver].keyAmount[toString(productId)]=amount;\nbalanceToSend[sender].keyAmount[toString(productId)]=amount;\nbalanceToSend[sender].total+=amount;\n\n}\n\nfunction balance(address retailerAddr) public view returns ( uint ){\n        return balanceOf[retailerAddr];\n    }\n    function balanceToReceiveBlocked(address retailerAddr) public view returns ( uint){\n        return balanceToReceive[retailerAddr].total ;\n    }\n    function balanceToSendBlocked(address retailerAddr) public view returns ( uint){\n        return balanceToSend[retailerAddr].total ;\n    }\n\n}",
  "sourcePath": "/home/mrbnf/Documents/myapp/SupplyChain/supplychain/contracts/SupplyChain.sol",
  "compiler": {
    "name": "solc",
    "version": "0.5.16+commit.9c3226ce.Emscripten.clang"
  },
  "schemaVersion": "3.4.7",
  "updatedAt": "2022-06-06T23:54:58.398Z",
  "networkType": "ethereum",
  "devdoc": {
    "methods": {}
  },
  "userdoc": {
    "methods": {}
  }
}