{
    "contractName": "AcountManagement",
    "abi": [
        {
            "inputs": [
                {
                    "internalType": "string",
                    "name": "",
                    "type": "string"
                }
            ],
            "name": "acountExist",
            "outputs": [
                {
                    "internalType": "bool",
                    "name": "",
                    "type": "bool"
                }
            ],
            "stateMutability": "view",
            "type": "function"
        },
        {
            "inputs": [
                {
                    "internalType": "string",
                    "name": "",
                    "type": "string"
                }
            ],
            "name": "acountsList",
            "outputs": [
                {
                    "internalType": "address",
                    "name": "owner",
                    "type": "address"
                },
                {
                    "internalType": "string",
                    "name": "password",
                    "type": "string"
                },
                {
                    "internalType": "enum AcountManagement.JobType",
                    "name": "job",
                    "type": "uint8"
                }
            ],
            "stateMutability": "view",
            "type": "function"
        },
        {
            "inputs": [
                {
                    "internalType": "string",
                    "name": "_userName",
                    "type": "string"
                },
                {
                    "internalType": "string",
                    "name": "_password",
                    "type": "string"
                },
                {
                    "internalType": "enum AcountManagement.JobType",
                    "name": "_job",
                    "type": "uint8"
                }
            ],
            "name": "createAcount",
            "outputs": [],
            "stateMutability": "nonpayable",
            "type": "function"
        },
        {
            "inputs": [
                {
                    "internalType": "string",
                    "name": "_userName",
                    "type": "string"
                },
                {
                    "internalType": "string",
                    "name": "_password",
                    "type": "string"
                }
            ],
            "name": "login",
            "outputs": [
                {
                    "internalType": "bool",
                    "name": "",
                    "type": "bool"
                }
            ],
            "stateMutability": "view",
            "type": "function"
        }
    ],
    "bytecode": "608060405234801561001057600080fd5b506108b1806100206000396000f3fe608060405234801561001057600080fd5b506004361061004c5760003560e01c8063249ab676146100515780633cc6fbfd1461007c57806358467dbc146100ba578063fba4c6a2146100cd575b600080fd5b61006461005f366004610567565b6100e2565b604051610073939291906105e2565b60405180910390f35b6100aa61008a366004610567565b805160208183018101805160018252928201919093012091525460ff1681565b6040519015158152602001610073565b6100aa6100c8366004610692565b6101a5565b6100e06100db3660046106fe565b6102e7565b005b8051602081830181018051600082529282019190930120915280546001820180546001600160a01b0390921692916101199061077a565b80601f01602080910402602001604051908101604052809291908181526020018280546101459061077a565b80156101925780601f1061016757610100808354040283529160200191610192565b820191906000526020600020905b81548152906001019060200180831161017557829003601f168201915b5050506002909301549192505060ff1683565b6000600185856040516101b99291906107b4565b9081526040519081900360200190205460ff1615156000036101dd575060006102df565b82826040516020016101f09291906107b4565b60405160208183030381529060405280519060200120600086866040516102189291906107b4565b908152602001604051809103902060010160405160200161023991906107c4565b604051602081830303815290604052805190602001201461025c575060006102df565b828260405160200161026f9291906107b4565b60405160208183030381529060405280519060200120600086866040516102979291906107b4565b90815260200160405180910390206001016040516020016102b891906107c4565b60405160208183030381529060405280519060200120036102db575060016102df565b5060005b949350505050565b6001836040516102f7919061085f565b9081526040519081900360200190205460ff161561034d5760405162461bcd60e51b815260206004820152600f60248201526e6368616e676520757365726e616d6560881b604482015260640160405180910390fd5b6001808460405161035e919061085f565b9081526040805160209281900383018120805460ff19169415159490941790935560608301815233835290820184905281018260038111156103a2576103a26105cc565b8152506000846040516103b5919061085f565b90815260405160209181900382019020825181546001600160a01b0319166001600160a01b0390911617815582820151805191926103fb9260018501929091019061042b565b50604082015160028201805460ff1916600183600381111561041f5761041f6105cc565b02179055505050505050565b8280546104379061077a565b90600052602060002090601f016020900481019282610459576000855561049f565b82601f1061047257805160ff191683800117855561049f565b8280016001018555821561049f579182015b8281111561049f578251825591602001919060010190610484565b506104ab9291506104af565b5090565b5b808211156104ab57600081556001016104b0565b634e487b7160e01b600052604160045260246000fd5b600082601f8301126104eb57600080fd5b813567ffffffffffffffff80821115610506576105066104c4565b604051601f8301601f19908116603f0116810190828211818310171561052e5761052e6104c4565b8160405283815286602085880101111561054757600080fd5b836020870160208301376000602085830101528094505050505092915050565b60006020828403121561057957600080fd5b813567ffffffffffffffff81111561059057600080fd5b6102df848285016104da565b60005b838110156105b757818101518382015260200161059f565b838111156105c6576000848401525b50505050565b634e487b7160e01b600052602160045260246000fd5b60018060a01b0384168152606060208201526000835180606084015261060f81608085016020880161059c565b601f01601f1916820160800190506004831061063b57634e487b7160e01b600052602160045260246000fd5b826040830152949350505050565b60008083601f84011261065b57600080fd5b50813567ffffffffffffffff81111561067357600080fd5b60208301915083602082850101111561068b57600080fd5b9250929050565b600080600080604085870312156106a857600080fd5b843567ffffffffffffffff808211156106c057600080fd5b6106cc88838901610649565b909650945060208701359150808211156106e557600080fd5b506106f287828801610649565b95989497509550505050565b60008060006060848603121561071357600080fd5b833567ffffffffffffffff8082111561072b57600080fd5b610737878388016104da565b9450602086013591508082111561074d57600080fd5b5061075a868287016104da565b92505060408401356004811061076f57600080fd5b809150509250925092565b600181811c9082168061078e57607f821691505b6020821081036107ae57634e487b7160e01b600052602260045260246000fd5b50919050565b8183823760009101908152919050565b600080835481600182811c9150808316806107e057607f831692505b602080841082036107ff57634e487b7160e01b86526022600452602486fd5b818015610813576001811461082457610851565b60ff19861689528489019650610851565b60008a81526020902060005b868110156108495781548b820152908501908301610830565b505084890196505b509498975050505050505050565b6000825161087181846020870161059c565b919091019291505056fea26469706673582212203bb8b7c69edc8b4bf65872fb55cccc8df72b82f7e7544b57c8215e418b13658f64736f6c634300080d0033",
    "sourcePath": "/home/mrbnf/Documents/myapp/SupplyChain/supplychain/contracts/AcountManagement.sol",
    "compiler": {
        "name": "solc",
        "version": "0.8.13+commit.abaa5c0e"
    },
    "functionHashes": {
        "acountExist(string)": "3cc6fbfd",
        "acountsList(string)": "249ab676",
        "createAcount(string,string,uint8)": "fba4c6a2",
        "login(string,string)": "58467dbc"
    },
    "gasEstimates": {
        "creation": {
            "codeDepositCost": "445000",
            "executionCost": "480",
            "totalCost": "445480"
        },
        "external": {
            "acountExist(string)": "infinite",
            "acountsList(string)": "infinite",
            "createAcount(string,string,uint8)": "infinite",
            "login(string,string)": "infinite"
        }
    }
}