{
    "contractName": "MyCoin",
    "abi": [
        {
            "inputs": [
                {
                    "internalType": "address",
                    "name": "retailerAddr",
                    "type": "address"
                }
            ],
            "name": "balance",
            "outputs": [
                {
                    "internalType": "uint256",
                    "name": "",
                    "type": "uint256"
                }
            ],
            "stateMutability": "view",
            "type": "function"
        },
        {
            "inputs": [
                {
                    "internalType": "address",
                    "name": "",
                    "type": "address"
                }
            ],
            "name": "balanceOf",
            "outputs": [
                {
                    "internalType": "uint256",
                    "name": "",
                    "type": "uint256"
                }
            ],
            "stateMutability": "view",
            "type": "function"
        },
        {
            "inputs": [
                {
                    "internalType": "address",
                    "name": "",
                    "type": "address"
                }
            ],
            "name": "balanceToReceive",
            "outputs": [
                {
                    "internalType": "uint256",
                    "name": "total",
                    "type": "uint256"
                }
            ],
            "stateMutability": "view",
            "type": "function"
        },
        {
            "inputs": [
                {
                    "internalType": "address",
                    "name": "retailerAddr",
                    "type": "address"
                }
            ],
            "name": "balanceToReceiveBlocked",
            "outputs": [
                {
                    "internalType": "uint256",
                    "name": "",
                    "type": "uint256"
                }
            ],
            "stateMutability": "view",
            "type": "function"
        },
        {
            "inputs": [
                {
                    "internalType": "address",
                    "name": "",
                    "type": "address"
                }
            ],
            "name": "balanceToSend",
            "outputs": [
                {
                    "internalType": "uint256",
                    "name": "total",
                    "type": "uint256"
                }
            ],
            "stateMutability": "view",
            "type": "function"
        },
        {
            "inputs": [
                {
                    "internalType": "address",
                    "name": "retailerAddr",
                    "type": "address"
                }
            ],
            "name": "balanceToSendBlocked",
            "outputs": [
                {
                    "internalType": "uint256",
                    "name": "",
                    "type": "uint256"
                }
            ],
            "stateMutability": "view",
            "type": "function"
        },
        {
            "inputs": [
                {
                    "internalType": "address",
                    "name": "receiver",
                    "type": "address"
                },
                {
                    "internalType": "address",
                    "name": "sender",
                    "type": "address"
                },
                {
                    "internalType": "uint256",
                    "name": "productId",
                    "type": "uint256"
                },
                {
                    "internalType": "uint256",
                    "name": "amount",
                    "type": "uint256"
                }
            ],
            "name": "blockAmount",
            "outputs": [],
            "stateMutability": "nonpayable",
            "type": "function"
        },
        {
            "inputs": [
                {
                    "internalType": "bytes32",
                    "name": "_messageHash",
                    "type": "bytes32"
                }
            ],
            "name": "getEthSignedHash",
            "outputs": [
                {
                    "internalType": "bytes32",
                    "name": "",
                    "type": "bytes32"
                }
            ],
            "stateMutability": "pure",
            "type": "function"
        },
        {
            "inputs": [
                {
                    "internalType": "string",
                    "name": "str",
                    "type": "string"
                }
            ],
            "name": "getHash",
            "outputs": [
                {
                    "internalType": "bytes32",
                    "name": "",
                    "type": "bytes32"
                }
            ],
            "stateMutability": "pure",
            "type": "function"
        },
        {
            "inputs": [
                {
                    "internalType": "uint256",
                    "name": "amount",
                    "type": "uint256"
                }
            ],
            "name": "mint",
            "outputs": [],
            "stateMutability": "nonpayable",
            "type": "function"
        },
        {
            "inputs": [
                {
                    "internalType": "address",
                    "name": "owner",
                    "type": "address"
                },
                {
                    "internalType": "uint256",
                    "name": "amount",
                    "type": "uint256"
                }
            ],
            "name": "mintAddress",
            "outputs": [],
            "stateMutability": "nonpayable",
            "type": "function"
        },
        {
            "inputs": [
                {
                    "internalType": "address",
                    "name": "receiver",
                    "type": "address"
                },
                {
                    "internalType": "uint256",
                    "name": "amount",
                    "type": "uint256"
                }
            ],
            "name": "transfert",
            "outputs": [
                {
                    "internalType": "bool",
                    "name": "",
                    "type": "bool"
                }
            ],
            "stateMutability": "nonpayable",
            "type": "function"
        },
        {
            "inputs": [
                {
                    "internalType": "address",
                    "name": "receiver",
                    "type": "address"
                },
                {
                    "internalType": "address",
                    "name": "sender",
                    "type": "address"
                },
                {
                    "internalType": "bytes",
                    "name": "_signature",
                    "type": "bytes"
                },
                {
                    "internalType": "uint256",
                    "name": "productId",
                    "type": "uint256"
                }
            ],
            "name": "transfertWithSignature",
            "outputs": [
                {
                    "internalType": "bool",
                    "name": "",
                    "type": "bool"
                }
            ],
            "stateMutability": "nonpayable",
            "type": "function"
        },
        {
            "inputs": [
                {
                    "internalType": "bytes32",
                    "name": "_ethSignedMessageHash",
                    "type": "bytes32"
                },
                {
                    "internalType": "bytes",
                    "name": "_signature",
                    "type": "bytes"
                }
            ],
            "name": "verify",
            "outputs": [
                {
                    "internalType": "address",
                    "name": "",
                    "type": "address"
                }
            ],
            "stateMutability": "pure",
            "type": "function"
        }
    ],
    "bytecode": "608060405234801561001057600080fd5b50610d90806100206000396000f3fe608060405234801561001057600080fd5b50600436106100ea5760003560e01c8063a0712d681161008c578063be0717c111610066578063be0717c11461023b578063c4c89c811461025e578063d898771c14610271578063e3d670d71461028457600080fd5b8063a0712d68146101d7578063a884af13146101ea578063bb6d62f61461021757600080fd5b806346168630116100c857806346168630146101635780635b6beeb91461017857806366b6e0ba1461018b57806370a08231146101b757600080fd5b8063258ae582146100ef5780632f4ea5ea1461011f5780634362c11614610140575b600080fd5b6101026100fd366004610abb565b6102ad565b6040516001600160a01b0390911681526020015b60405180910390f35b61013261012d366004610b02565b61032c565b604051908152602001610116565b61015361014e366004610b37565b610380565b6040519015158152602001610116565b610176610171366004610b61565b6103dc565b005b610132610186366004610ba3565b610563565b610132610199366004610bec565b6001600160a01b031660009081526002602052604090206001015490565b6101326101c5366004610bec565b60006020819052908152604090205481565b6101766101e5366004610b02565b610576565b6101326101f8366004610bec565b6001600160a01b03166000908152600160208190526040909120015490565b610132610225366004610bec565b6001602081905260009182526040909120015481565b610132610249366004610bec565b60026020526000908152604090206001015481565b61015361026c366004610c07565b61059d565b61017661027f366004610b37565b61089f565b610132610292366004610bec565b6001600160a01b031660009081526020819052604090205490565b6000806000806102bc856108d0565b6040805160008152602081018083528b905260ff8316918101919091526060810184905260808101839052929550909350915060019060a0016020604051602081039080840390855afa158015610317573d6000803e3d6000fd5b5050604051601f190151979650505050505050565b6040517f19457468657265756d205369676e6564204d6573736167653a0a3332000000006020820152603c8101829052600090605c015b604051602081830303815290604052805190602001209050919050565b336000908152602081905260408120805483919083906103a1908490610c83565b90915550506001600160a01b038316600090815260208190526040812080548492906103ce908490610c9a565b909155506001949350505050565b6001600160a01b03831660009081526020819052604090205481111561043f5760405162461bcd60e51b8152602060048201526013602482015272796f7520646f6e742068617665206d6f6e657960681b60448201526064015b60405180910390fd5b6001600160a01b03831660009081526020819052604081208054839290610467908490610c83565b90915550506001600160a01b03841660009081526002602052604081206001018054839290610497908490610c9a565b90915550506001600160a01b038416600090815260026020526040902081906104bf846108ff565b6040516104cc9190610cb2565b9081526040805160209281900383019020929092556001600160a01b03851660009081526001909152208190610501846108ff565b60405161050e9190610cb2565b9081526020016040518091039020819055508060016000856001600160a01b03166001600160a01b0316815260200190815260200160002060010160008282546105589190610c9a565b909155505050505050565b6000816040516020016103639190610cb2565b3360009081526020819052604081208054839290610595908490610c9a565b909155505050565b6000806105ac610186846108ff565b905060006105b98261032c565b905060006105c782876102ad565b9050866001600160a01b0316816001600160a01b0316146106355760405162461bcd60e51b815260206004820152602260248201527f7369676e657220617265206e6f74207468652073656e64657220696e20696e706044820152611d5d60f21b6064820152608401610436565b6001600160a01b0388166000908152600260205260409020610656866108ff565b6040516106639190610cb2565b9081526020016040518091039020546000808a6001600160a01b03166001600160a01b0316815260200190815260200160002060008282546106a59190610c9a565b90915550506001600160a01b03881660009081526002602052604090206106cb866108ff565b6040516106d89190610cb2565b908152602001604051809103902054600260008a6001600160a01b03166001600160a01b03168152602001908152602001600020600101600082825461071e9190610c83565b90915550506001600160a01b0388166000908152600260205260408120610744876108ff565b6040516107519190610cb2565b9081526040805160209281900383019020929092556001600160a01b0389166000908152600190915220610784866108ff565b6040516107919190610cb2565b908152602001604051809103902054600080896001600160a01b03166001600160a01b0316815260200190815260200160002060008282546107d39190610c83565b90915550506001600160a01b03871660009081526001602052604081206107f9876108ff565b6040516108069190610cb2565b9081526040805160209281900383019020929092556001600160a01b0389166000908152600190915220610839866108ff565b6040516108469190610cb2565b90815260200160405180910390205460016000896001600160a01b03166001600160a01b03168152602001908152602001600020600101600082825461088c9190610c83565b9091555060019998505050505050505050565b6001600160a01b038216600090815260208190526040812080548392906108c7908490610c9a565b90915550505050565b600080600083516041146108e357600080fd5b50505060208101516040820151606083015160001a9193909250565b6060816000036109265750506040805180820190915260018152600360fc1b602082015290565b8160005b8115610950578061093a81610ced565b91506109499050600a83610d1c565b915061092a565b60008167ffffffffffffffff81111561096b5761096b610a08565b6040519080825280601f01601f191660200182016040528015610995576020820181803683370190505b5090505b8415610a00576109aa600183610c83565b91506109b7600a86610d30565b6109c2906030610c9a565b60f81b8183815181106109d7576109d7610d44565b60200101906001600160f81b031916908160001a9053506109f9600a86610d1c565b9450610999565b949350505050565b634e487b7160e01b600052604160045260246000fd5b600067ffffffffffffffff80841115610a3957610a39610a08565b604051601f8501601f19908116603f01168101908282118183101715610a6157610a61610a08565b81604052809350858152868686011115610a7a57600080fd5b858560208301376000602087830101525050509392505050565b600082601f830112610aa557600080fd5b610ab483833560208501610a1e565b9392505050565b60008060408385031215610ace57600080fd5b82359150602083013567ffffffffffffffff811115610aec57600080fd5b610af885828601610a94565b9150509250929050565b600060208284031215610b1457600080fd5b5035919050565b80356001600160a01b0381168114610b3257600080fd5b919050565b60008060408385031215610b4a57600080fd5b610b5383610b1b565b946020939093013593505050565b60008060008060808587031215610b7757600080fd5b610b8085610b1b565b9350610b8e60208601610b1b565b93969395505050506040820135916060013590565b600060208284031215610bb557600080fd5b813567ffffffffffffffff811115610bcc57600080fd5b8201601f81018413610bdd57600080fd5b610a0084823560208401610a1e565b600060208284031215610bfe57600080fd5b610ab482610b1b565b60008060008060808587031215610c1d57600080fd5b610c2685610b1b565b9350610c3460208601610b1b565b9250604085013567ffffffffffffffff811115610c5057600080fd5b610c5c87828801610a94565b949793965093946060013593505050565b634e487b7160e01b600052601160045260246000fd5b600082821015610c9557610c95610c6d565b500390565b60008219821115610cad57610cad610c6d565b500190565b6000825160005b81811015610cd35760208186018101518583015201610cb9565b81811115610ce2576000828501525b509190910192915050565b600060018201610cff57610cff610c6d565b5060010190565b634e487b7160e01b600052601260045260246000fd5b600082610d2b57610d2b610d06565b500490565b600082610d3f57610d3f610d06565b500690565b634e487b7160e01b600052603260045260246000fdfea26469706673582212200868a82083da3ec781d59bec56f15e17f6017a5e1cef4a6912e3793bd6ef2d6364736f6c634300080e0033",
    "sourcePath": "/home/mrbnf/Documents/myapp/SupplyChain/supplychain/contracts/SupplyChain.sol",
    "compiler": {
        "name": "solc",
        "version": "0.8.14+commit.80d49f37"
    },
    "functionHashes": {
        "balance(address)": "e3d670d7",
        "balanceOf(address)": "70a08231",
        "balanceToReceive(address)": "be0717c1",
        "balanceToReceiveBlocked(address)": "66b6e0ba",
        "balanceToSend(address)": "bb6d62f6",
        "balanceToSendBlocked(address)": "a884af13",
        "blockAmount(address,address,uint256,uint256)": "46168630",
        "getEthSignedHash(bytes32)": "2f4ea5ea",
        "getHash(string)": "5b6beeb9",
        "mint(uint256)": "a0712d68",
        "mintAddress(address,uint256)": "d898771c",
        "transfert(address,uint256)": "4362c116",
        "transfertWithSignature(address,address,bytes,uint256)": "c4c89c81",
        "verify(bytes32,bytes)": "258ae582"
    },
    "gasEstimates": {
        "creation": {
            "codeDepositCost": "694400",
            "executionCost": "728",
            "totalCost": "695128"
        },
        "external": {
            "balance(address)": "2628",
            "balanceOf(address)": "2611",
            "balanceToReceive(address)": "2547",
            "balanceToReceiveBlocked(address)": "2610",
            "balanceToSend(address)": "2598",
            "balanceToSendBlocked(address)": "2594",
            "blockAmount(address,address,uint256,uint256)": "infinite",
            "getEthSignedHash(bytes32)": "491",
            "getHash(string)": "infinite",
            "mint(uint256)": "24615",
            "mintAddress(address,uint256)": "24781",
            "transfert(address,uint256)": "49229",
            "transfertWithSignature(address,address,bytes,uint256)": "infinite",
            "verify(bytes32,bytes)": "infinite"
        },
        "internal": {
            "splitSignature(bytes memory)": "infinite",
            "toString(uint256)": "infinite"
        }
    }
}