{
    "contractName": "SupplyChain",
    "abi": [
        {
            "anonymous": false,
            "inputs": [
                {
                    "indexed": true,
                    "internalType": "address",
                    "name": "_owner",
                    "type": "address"
                },
                {
                    "indexed": false,
                    "internalType": "uint256",
                    "name": "_i",
                    "type": "uint256"
                }
            ],
            "name": "FarmerProductEvent",
            "type": "event"
        },
        {
            "inputs": [
                {
                    "internalType": "uint256",
                    "name": "productId",
                    "type": "uint256"
                },
                {
                    "internalType": "uint256",
                    "name": "amount",
                    "type": "uint256"
                },
                {
                    "internalType": "address",
                    "name": "coinAddress",
                    "type": "address"
                }
            ],
            "name": "buyProductCustomers",
            "outputs": [],
            "stateMutability": "nonpayable",
            "type": "function"
        },
        {
            "inputs": [
                {
                    "internalType": "uint256",
                    "name": "productId",
                    "type": "uint256"
                },
                {
                    "internalType": "uint256",
                    "name": "amount",
                    "type": "uint256"
                },
                {
                    "internalType": "address",
                    "name": "coinAddress",
                    "type": "address"
                }
            ],
            "name": "buyProductRetailer",
            "outputs": [],
            "stateMutability": "nonpayable",
            "type": "function"
        },
        {
            "inputs": [
                {
                    "internalType": "uint256",
                    "name": "productId",
                    "type": "uint256"
                },
                {
                    "internalType": "uint256",
                    "name": "amount",
                    "type": "uint256"
                },
                {
                    "internalType": "address",
                    "name": "coinAddress",
                    "type": "address"
                }
            ],
            "name": "buyProductWholesaler",
            "outputs": [],
            "stateMutability": "nonpayable",
            "type": "function"
        },
        {
            "inputs": [
                {
                    "internalType": "address",
                    "name": "theCustomer",
                    "type": "address"
                }
            ],
            "name": "customersHistory",
            "outputs": [
                {
                    "internalType": "uint256[]",
                    "name": "",
                    "type": "uint256[]"
                }
            ],
            "stateMutability": "view",
            "type": "function"
        },
        {
            "inputs": [
                {
                    "internalType": "address",
                    "name": "theCustomer",
                    "type": "address"
                }
            ],
            "name": "customersToReceive",
            "outputs": [
                {
                    "internalType": "uint256[]",
                    "name": "",
                    "type": "uint256[]"
                }
            ],
            "stateMutability": "view",
            "type": "function"
        },
        {
            "inputs": [
                {
                    "internalType": "string",
                    "name": "productType",
                    "type": "string"
                },
                {
                    "internalType": "uint256",
                    "name": "amount",
                    "type": "uint256"
                },
                {
                    "internalType": "uint256",
                    "name": "price",
                    "type": "uint256"
                },
                {
                    "internalType": "uint256",
                    "name": "minQuantity",
                    "type": "uint256"
                }
            ],
            "name": "farmerAddProduct",
            "outputs": [],
            "stateMutability": "nonpayable",
            "type": "function"
        },
        {
            "inputs": [
                {
                    "internalType": "uint256",
                    "name": "productId",
                    "type": "uint256"
                },
                {
                    "internalType": "bytes",
                    "name": "signature",
                    "type": "bytes"
                },
                {
                    "internalType": "address",
                    "name": "coinAddress",
                    "type": "address"
                }
            ],
            "name": "farmerConfirmSending",
            "outputs": [],
            "stateMutability": "nonpayable",
            "type": "function"
        },
        {
            "inputs": [
                {
                    "internalType": "address",
                    "name": "theFarmer",
                    "type": "address"
                }
            ],
            "name": "farmersHistory",
            "outputs": [
                {
                    "internalType": "uint256[]",
                    "name": "",
                    "type": "uint256[]"
                }
            ],
            "stateMutability": "view",
            "type": "function"
        },
        {
            "inputs": [
                {
                    "internalType": "address",
                    "name": "theFarmer",
                    "type": "address"
                }
            ],
            "name": "farmersProductsForSale",
            "outputs": [
                {
                    "internalType": "uint256[]",
                    "name": "",
                    "type": "uint256[]"
                }
            ],
            "stateMutability": "view",
            "type": "function"
        },
        {
            "inputs": [
                {
                    "internalType": "string",
                    "name": "typee",
                    "type": "string"
                }
            ],
            "name": "farmersProductsListe",
            "outputs": [
                {
                    "internalType": "uint256[]",
                    "name": "",
                    "type": "uint256[]"
                }
            ],
            "stateMutability": "view",
            "type": "function"
        },
        {
            "inputs": [
                {
                    "internalType": "address",
                    "name": "theFarmer",
                    "type": "address"
                }
            ],
            "name": "farmersToSend",
            "outputs": [
                {
                    "internalType": "uint256[]",
                    "name": "",
                    "type": "uint256[]"
                }
            ],
            "stateMutability": "view",
            "type": "function"
        },
        {
            "inputs": [],
            "name": "finalID",
            "outputs": [
                {
                    "internalType": "uint256",
                    "name": "",
                    "type": "uint256"
                }
            ],
            "stateMutability": "view",
            "type": "function"
        },
        {
            "inputs": [
                {
                    "internalType": "string",
                    "name": "str",
                    "type": "string"
                }
            ],
            "name": "getHash",
            "outputs": [
                {
                    "internalType": "bytes32",
                    "name": "",
                    "type": "bytes32"
                }
            ],
            "stateMutability": "pure",
            "type": "function"
        },
        {
            "inputs": [
                {
                    "internalType": "uint256[]",
                    "name": "_productsId",
                    "type": "uint256[]"
                }
            ],
            "name": "productDatafromList",
            "outputs": [
                {
                    "components": [
                        {
                            "internalType": "address",
                            "name": "owner",
                            "type": "address"
                        },
                        {
                            "internalType": "uint256",
                            "name": "parent",
                            "type": "uint256"
                        },
                        {
                            "internalType": "string",
                            "name": "productType",
                            "type": "string"
                        },
                        {
                            "internalType": "uint256",
                            "name": "amount",
                            "type": "uint256"
                        },
                        {
                            "internalType": "uint256",
                            "name": "amountRemaining",
                            "type": "uint256"
                        },
                        {
                            "internalType": "bool",
                            "name": "isForSale",
                            "type": "bool"
                        },
                        {
                            "internalType": "uint256",
                            "name": "price",
                            "type": "uint256"
                        },
                        {
                            "internalType": "uint256",
                            "name": "minQuantity",
                            "type": "uint256"
                        }
                    ],
                    "internalType": "struct SupplyChain.ProductData[]",
                    "name": "",
                    "type": "tuple[]"
                }
            ],
            "stateMutability": "view",
            "type": "function"
        },
        {
            "inputs": [
                {
                    "internalType": "uint256",
                    "name": "",
                    "type": "uint256"
                }
            ],
            "name": "productTypes",
            "outputs": [
                {
                    "internalType": "string",
                    "name": "",
                    "type": "string"
                }
            ],
            "stateMutability": "view",
            "type": "function"
        },
        {
            "inputs": [
                {
                    "internalType": "uint256",
                    "name": "",
                    "type": "uint256"
                }
            ],
            "name": "productsData",
            "outputs": [
                {
                    "internalType": "address",
                    "name": "owner",
                    "type": "address"
                },
                {
                    "internalType": "uint256",
                    "name": "parent",
                    "type": "uint256"
                },
                {
                    "internalType": "string",
                    "name": "productType",
                    "type": "string"
                },
                {
                    "internalType": "uint256",
                    "name": "amount",
                    "type": "uint256"
                },
                {
                    "internalType": "uint256",
                    "name": "amountRemaining",
                    "type": "uint256"
                },
                {
                    "internalType": "bool",
                    "name": "isForSale",
                    "type": "bool"
                },
                {
                    "internalType": "uint256",
                    "name": "price",
                    "type": "uint256"
                },
                {
                    "internalType": "uint256",
                    "name": "minQuantity",
                    "type": "uint256"
                }
            ],
            "stateMutability": "view",
            "type": "function"
        },
        {
            "inputs": [
                {
                    "internalType": "uint256",
                    "name": "productId",
                    "type": "uint256"
                },
                {
                    "internalType": "bytes",
                    "name": "signature",
                    "type": "bytes"
                },
                {
                    "internalType": "address",
                    "name": "coinAddress",
                    "type": "address"
                }
            ],
            "name": "retailerConfirmSending",
            "outputs": [],
            "stateMutability": "nonpayable",
            "type": "function"
        },
        {
            "inputs": [
                {
                    "internalType": "uint256",
                    "name": "productId",
                    "type": "uint256"
                },
                {
                    "internalType": "uint256",
                    "name": "price",
                    "type": "uint256"
                },
                {
                    "internalType": "uint256",
                    "name": "minQuantity",
                    "type": "uint256"
                }
            ],
            "name": "retailerFromStockToSale",
            "outputs": [],
            "stateMutability": "nonpayable",
            "type": "function"
        },
        {
            "inputs": [
                {
                    "internalType": "address",
                    "name": "retailerAddr",
                    "type": "address"
                }
            ],
            "name": "retailerHistory",
            "outputs": [
                {
                    "internalType": "uint256[]",
                    "name": "",
                    "type": "uint256[]"
                }
            ],
            "stateMutability": "view",
            "type": "function"
        },
        {
            "inputs": [
                {
                    "internalType": "address",
                    "name": "retailerAddr",
                    "type": "address"
                }
            ],
            "name": "retailerStock",
            "outputs": [
                {
                    "internalType": "uint256[]",
                    "name": "",
                    "type": "uint256[]"
                }
            ],
            "stateMutability": "view",
            "type": "function"
        },
        {
            "inputs": [
                {
                    "internalType": "address",
                    "name": "retailerAddr",
                    "type": "address"
                }
            ],
            "name": "retailerToReceive",
            "outputs": [
                {
                    "internalType": "uint256[]",
                    "name": "",
                    "type": "uint256[]"
                }
            ],
            "stateMutability": "view",
            "type": "function"
        },
        {
            "inputs": [
                {
                    "internalType": "address",
                    "name": "retailerAddr",
                    "type": "address"
                }
            ],
            "name": "retailerToSend",
            "outputs": [
                {
                    "internalType": "uint256[]",
                    "name": "",
                    "type": "uint256[]"
                }
            ],
            "stateMutability": "view",
            "type": "function"
        },
        {
            "inputs": [
                {
                    "internalType": "string",
                    "name": "typee",
                    "type": "string"
                }
            ],
            "name": "retailersProductsListe",
            "outputs": [
                {
                    "internalType": "uint256[]",
                    "name": "",
                    "type": "uint256[]"
                }
            ],
            "stateMutability": "view",
            "type": "function"
        },
        {
            "inputs": [
                {
                    "internalType": "address",
                    "name": "retailerAddr",
                    "type": "address"
                }
            ],
            "name": "retailersproductsForSale",
            "outputs": [
                {
                    "internalType": "uint256[]",
                    "name": "",
                    "type": "uint256[]"
                }
            ],
            "stateMutability": "view",
            "type": "function"
        },
        {
            "inputs": [
                {
                    "internalType": "uint256[]",
                    "name": "list",
                    "type": "uint256[]"
                },
                {
                    "internalType": "uint256",
                    "name": "value",
                    "type": "uint256"
                }
            ],
            "name": "retreiveIndex",
            "outputs": [
                {
                    "internalType": "bool",
                    "name": "b",
                    "type": "bool"
                },
                {
                    "internalType": "uint256",
                    "name": "u",
                    "type": "uint256"
                }
            ],
            "stateMutability": "pure",
            "type": "function"
        },
        {
            "inputs": [
                {
                    "internalType": "uint256",
                    "name": "productId",
                    "type": "uint256"
                },
                {
                    "internalType": "bytes",
                    "name": "signature",
                    "type": "bytes"
                },
                {
                    "internalType": "address",
                    "name": "coinAddress",
                    "type": "address"
                }
            ],
            "name": "wholeSalerConfirmSending",
            "outputs": [],
            "stateMutability": "nonpayable",
            "type": "function"
        },
        {
            "inputs": [
                {
                    "internalType": "uint256",
                    "name": "productId",
                    "type": "uint256"
                },
                {
                    "internalType": "uint256",
                    "name": "price",
                    "type": "uint256"
                },
                {
                    "internalType": "uint256",
                    "name": "minQuantity",
                    "type": "uint256"
                }
            ],
            "name": "wholeSalerFromStockToSale",
            "outputs": [],
            "stateMutability": "nonpayable",
            "type": "function"
        },
        {
            "inputs": [
                {
                    "internalType": "address",
                    "name": "wholeSaerAddr",
                    "type": "address"
                }
            ],
            "name": "wholeSalerHistory",
            "outputs": [
                {
                    "internalType": "uint256[]",
                    "name": "",
                    "type": "uint256[]"
                }
            ],
            "stateMutability": "view",
            "type": "function"
        },
        {
            "inputs": [
                {
                    "internalType": "address",
                    "name": "wholeSaerAddr",
                    "type": "address"
                }
            ],
            "name": "wholeSalerStock",
            "outputs": [
                {
                    "internalType": "uint256[]",
                    "name": "",
                    "type": "uint256[]"
                }
            ],
            "stateMutability": "view",
            "type": "function"
        },
        {
            "inputs": [
                {
                    "internalType": "address",
                    "name": "wholeSaerAddr",
                    "type": "address"
                }
            ],
            "name": "wholeSalerToReceive",
            "outputs": [
                {
                    "internalType": "uint256[]",
                    "name": "",
                    "type": "uint256[]"
                }
            ],
            "stateMutability": "view",
            "type": "function"
        },
        {
            "inputs": [
                {
                    "internalType": "address",
                    "name": "wholeSaerAddr",
                    "type": "address"
                }
            ],
            "name": "wholeSalerToSend",
            "outputs": [
                {
                    "internalType": "uint256[]",
                    "name": "",
                    "type": "uint256[]"
                }
            ],
            "stateMutability": "view",
            "type": "function"
        },
        {
            "inputs": [
                {
                    "internalType": "address",
                    "name": "wholeSaerAddr",
                    "type": "address"
                }
            ],
            "name": "wholeSalerproductsForSale",
            "outputs": [
                {
                    "internalType": "uint256[]",
                    "name": "",
                    "type": "uint256[]"
                }
            ],
            "stateMutability": "view",
            "type": "function"
        },
        {
            "inputs": [
                {
                    "internalType": "string",
                    "name": "typee",
                    "type": "string"
                }
            ],
            "name": "wholesalersProductsListe",
            "outputs": [
                {
                    "internalType": "uint256[]",
                    "name": "",
                    "type": "uint256[]"
                }
            ],
            "stateMutability": "view",
            "type": "function"
        }
    ],
    "bytecode": "6103e8600055600861030081815267506f7461746f657360c01b61032052608090815261034082815267546f6d61746f657360c01b6103605260a052600c6103809081526b53747261776265727269657360a01b6103a05260c05260056103c090815264506c756d7360d81b6103e05260e0526007610400818152665065616368657360c81b6104205261010052610440838152671159d9dc1b185b9d60c21b61046052610120526104808381526721bab1bab6b132b960c11b6104a0526101405260046104c0818152634669677360e01b6104e052610160526006610500818152654f6e696f6e7360d01b6105205261018052610540818152654170706c657360d01b610560526101a05261058085815267436865727269657360c01b6105a0526101c0526105c08581526742726f63636f6c6960c01b6105e0526101e0526106008181526547726170657360d01b6106205261020052610640918252634b69776960e01b6106605261022091909152610680908152654c656d6f6e7360d01b6106a052610240526106c0818152664f72616e67657360c81b6106e05261026052610700818152660a6e0d2dcc2c6d60cb1b610720526102805261074081815266436172726f747360c81b610760526102a052610780908152664c65747475636560c81b6107a0526102c0526108006040526107c09182526741707269636f747360c01b6107e0526102e0919091526200021f90600190601462000234565b503480156200022d57600080fd5b50620003d9565b82805482825590600052602060002090810192821562000286579160200282015b828111156200028657825180516200027591849160209091019062000298565b509160200191906001019062000255565b506200029492915062000323565b5090565b828054620002a6906200039d565b90600052602060002090601f016020900481019282620002ca576000855562000315565b82601f10620002e557805160ff191683800117855562000315565b8280016001018555821562000315579182015b8281111562000315578251825591602001919060010190620002f8565b506200029492915062000344565b80821115620002945760006200033a82826200035b565b5060010162000323565b5b8082111562000294576000815560010162000345565b50805462000369906200039d565b6000825580601f106200037a575050565b601f0160209004906000526020600020908101906200039a919062000344565b50565b600181811c90821680620003b257607f821691505b602082108103620003d357634e487b7160e01b600052602260045260246000fd5b50919050565b613ffc80620003e96000396000f3fe608060405234801561001057600080fd5b50600436106101fb5760003560e01c80636b5ea4391161011a578063a84acf52116100ad578063c09327401161007c578063c093274014610464578063cc9c002314610484578063decd924b14610497578063eb87f969146104aa578063f5221a87146104bd57600080fd5b8063a84acf5214610418578063aa5899231461042b578063b887b23c1461043e578063ba438a071461045157600080fd5b8063779b8202116100e9578063779b8202146103ab5780637c09b0bb146103d25780638695c4d2146103f257806388191b701461040557600080fd5b80636b5ea4391461035f5780636dba2783146103725780636e6072ed1461038557806370c3f3481461039857600080fd5b80634a3d2b5a116101925780635751bfdc116101615780635751bfdc146103135780635aa8e244146103265780635b6beeb9146103395780636996f77e1461034c57600080fd5b80634a3d2b5a146102c75780634c7eed18146102da5780634cb3eadc146102ed5780634d2ef0f11461030057600080fd5b806333a4d991116101ce57806333a4d9911461027757806335da80791461028e57806337d684a5146102a1578063438dd8d5146102b457600080fd5b8063196ad2fd1461020057806325db31a61461022f5780632d02388a1461024f578063333f926914610262575b600080fd5b61021361020e3660046138be565b6104d0565b6040805192151583526020830191909152015b60405180910390f35b61024261023d36600461391f565b610545565b6040516102269190613941565b61024261025d36600461391f565b6105b4565b610275610270366004613985565b61061e565b005b61028060005481565b604051908152602001610226565b61027561029c366004613a12565b610c85565b6102756102af366004613985565b611200565b6102756102c2366004613a74565b6117cf565b6102426102d536600461391f565b61197d565b6102426102e836600461391f565b6119ea565b6102426102fb366004613ae9565b611a57565b61024261030e36600461391f565b611aca565b610275610321366004613985565b611b34565b610242610334366004613ae9565b612103565b610280610347366004613b2b565b612117565b61027561035a366004613b7c565b612147565b61024261036d36600461391f565b6122f2565b610242610380366004613ae9565b61235f565b61024261039336600461391f565b612373565b6102756103a6366004613a74565b6123e0565b6103be6103b9366004613bd6565b612560565b604051610226989796959493929190613c4b565b6103e56103e0366004613bd6565b612637565b6040516102269190613ca3565b61024261040036600461391f565b6126e3565b61024261041336600461391f565b612750565b61024261042636600461391f565b6127bd565b610275610439366004613a12565b61282a565b61024261044c36600461391f565b612da2565b61027561045f366004613a12565b612e0f565b610477610472366004613cb6565b613385565b6040516102269190613ceb565b61024261049236600461391f565b6135b0565b6102426104a536600461391f565b61361a565b6102426104b836600461391f565b613684565b6102426104cb36600461391f565b6136f1565b6000806000805b855181101561052c57848682815181106104f3576104f3613dac565b60200260200101510361050c576001935080925061052c565b8161051681613dd8565b925050808061052490613dd8565b9150506104d7565b508451810361053d57600092508091505b509250929050565b6001600160a01b0381166000908152600760209081526040918290206003018054835181840281018401909452808452606093928301828280156105a857602002820191906000526020600020905b815481526020019060010190808311610594575b50505050509050919050565b6001600160a01b0381166000908152600660209081526040918290208054835181840281018401909452808452606093928301828280156105a857602002820191906000526020600020908154815260200190600101908083116105945750505050509050919050565b60008054908061062d83613dd8565b9091555050600083815260056020908152604080832081516101008101835281546001600160a01b03168152600182015493810193909352600281018054919284019161067990613df1565b80601f01602080910402602001604051908101604052809291908181526020018280546106a590613df1565b80156106f25780601f106106c7576101008083540402835291602001916106f2565b820191906000526020600020905b8154815290600101906020018083116106d557829003601f168201915b50505091835250506003820154602082015260048201546040820152600582015460ff16151560608201526006820154608082015260079091015460a090910152805160005460c08301519293506001600160a01b0385169263461686309291339161075e9089613e2b565b6040518563ffffffff1660e01b815260040161077d9493929190613e4a565b600060405180830381600087803b15801561079757600080fd5b505af11580156107ab573d6000803e3d6000fd5b505050600085815260056020526040812060040180548693509091906107d2908490613e73565b909155505060408051610100810182523381526020808201878152848401518385019081526060840188905260808401889052600060a0850181905260c0850181905260e08501819052805481526005845294909420835181546001600160a01b0319166001600160a01b03909116178155905160018201559251805188949261086392600285019291019061375e565b5060608201516003820155608082015160048083019190915560a08301516005808401805460ff19169215159290921790915560c0840151600684015560e0909301516007909201919091553360009081526009602090815260408083208354600191820180548084018255908652848620015587516001600160a01b031684526008835281842084549086018054928301815585528385209091015589835293905291822001549003610c7e576000858152600560209081526040808320546001600160a01b0316835260088252808320805482518185028101850190935280835284938493849361098f93919290919083018282801561098457602002820191906000526020600020905b815481526020019060010190808311610970575b50505050508a6104d0565b8094508195505050610a1a6004600560008c81526020019081526020016000206002016040516109bf9190613e8a565b908152604080519182900360209081018320805480830285018301909352828452919083018282801561098457602002820191906000526020600020908154815260200190600101908083116109705750505050508a6104d0565b90925090508315610b32576000898152600560209081526040808320546001600160a01b03168352600890915290208054610a5790600190613e73565b81548110610a6757610a67613dac565b60009182526020808320909101548b8352600582526040808420546001600160a01b0316845260089092529120805485908110610aa657610aa6613dac565b60009182526020808320909101929092558a8152600582526040808220546001600160a01b03168252600890925220805480610ae457610ae4613f25565b6000828152602080822083016000199081018390559092019092558a8252600581526040808320546001600160a01b0316835260088252822060019081018054918201815583529120018990555b8115610c79576004600560008b8152602001908152602001600020600201604051610b5d9190613e8a565b908152602001604051809103902060000160016004600560008d8152602001908152602001600020600201604051610b959190613e8a565b90815260405190819003602001902054610baf9190613e73565b81548110610bbf57610bbf613dac565b90600052602060002001546004600560008c8152602001908152602001600020600201604051610bef9190613e8a565b90815260200160405180910390206000018281548110610c1157610c11613dac565b90600052602060002001819055506004600560008b8152602001908152602001600020600201604051610c449190613e8a565b908152604051908190036020019020805480610c6257610c62613f25565b600190038181906000526020600020016000905590555b505050505b5050505050565b600083815260056020908152604080832081516101008101835281546001600160a01b031681526001820154938101939093526002810180549192840191610ccc90613df1565b80601f0160208091040260200160405190810160405280929190818152602001828054610cf890613df1565b8015610d455780601f10610d1a57610100808354040283529160200191610d45565b820191906000526020600020905b815481529060010190602001808311610d2857829003601f168201915b50505091835250506003820154602080830191909152600483015460408084019190915260058085015460ff16151560608501526006850154608085015260079094015460a090930192909252835184820151600090815293825282842083516101008101855281546001600160a01b031681526001820154938101939093526002810180549697509195929390929084019190610de290613df1565b80601f0160208091040260200160405190810160405280929190818152602001828054610e0e90613df1565b8015610e5b5780601f10610e3057610100808354040283529160200191610e5b565b820191906000526020600020905b815481529060010190602001808311610e3e57829003601f168201915b505050918352505060038201546020820152600480830154604080840191909152600584015460ff16151560608401526006840154608084015260079093015460a0909201919091528251915163c4c89c8160e01b815292935090916001600160a01b0387169163c4c89c8191610eda91859188918c918e9101613f3b565b6020604051808303816000875af1158015610ef9573d6000803e3d6000fd5b505050506040513d601f19601f82011682018060405250810190610f1d9190613f78565b50600080600080610fa460066000876001600160a01b03166001600160a01b03168152602001908152602001600020600201805480602002602001604051908101604052809291908181526020018280548015610f9957602002820191906000526020600020905b815481526020019060010190808311610f85575b50505050508c6104d0565b6001600160a01b038916600090815260076020908152604091829020600301805483518184028101840190945280845294985092965061101a9391929190830182828015610f995760200282019190600052602060002090815481526020019060010190808311610f855750505050508c6104d0565b90925090508380156110295750835b156111f3576001600160a01b0385166000908152600660205260409020600201805461105790600190613e73565b8154811061106757611067613dac565b906000526020600020015460066000876001600160a01b03166001600160a01b0316815260200190815260200160002060020184815481106110ab576110ab613dac565b60009182526020808320909101929092556001600160a01b03871681526006909152604090206002018054806110e3576110e3613f25565b6000828152602080822083016000199081018390559092019092556001600160a01b03891682526007905260409020600301805461112390600190613e73565b8154811061113357611133613dac565b906000526020600020015460076000896001600160a01b03166001600160a01b03168152602001908152602001600020600301848154811061117757611177613dac565b60009182526020808320909101929092556001600160a01b03891681526007909152604090206003018054806111af576111af613f25565b6000828152602080822083016000199081018390559092019092556001600160a01b0389168252600781526040822060020180546001810182559083529120018b90555b5050505050505050505050565b60008054908061120f83613dd8565b9091555050600083815260056020908152604080832081516101008101835281546001600160a01b03168152600182015493810193909352600281018054919284019161125b90613df1565b80601f016020809104026020016040519081016040528092919081815260200182805461128790613df1565b80156112d45780601f106112a9576101008083540402835291602001916112d4565b820191906000526020600020905b8154815290600101906020018083116112b757829003601f168201915b50505091835250506003820154602082015260048201546040820152600582015460ff16151560608201526006820154608082015260079091015460a090910152805160005460c08301519293506001600160a01b038516926346168630929133916113409089613e2b565b6040518563ffffffff1660e01b815260040161135f9493929190613e4a565b600060405180830381600087803b15801561137957600080fd5b505af115801561138d573d6000803e3d6000fd5b505050600085815260056020526040812060040180548693509091906113b4908490613e73565b909155505060408051610100810182523381526020808201878152848401518385019081526060840188905260808401889052600060a0850181905260c0850181905260e08501819052805481526005845294909420835181546001600160a01b0319166001600160a01b03909116178155905160018201559251805188949261144592600285019291019061375e565b506060820151600382810191909155608083015160048084019190915560a08401516005808501805460ff19169215159290921790915560c0850151600685015560e09094015160079384015533600090815260086020908152604080832083549501805460018181018355918552838520019590955588516001600160a01b031683529481528482208254908401805495860181558352818320909401939093558981529390915290822001549003610c7e576000858152600560209081526040808320546001600160a01b0316835260078252808320805482518185028101850190935280835284938493849361157593919290919083018282801561098457602002820191906000526020600020908154815260200190600101908083116109705750505050508a6104d0565b80945081955050506115a56003600560008c81526020019081526020016000206002016040516109bf9190613e8a565b909250905083156116bd576000898152600560209081526040808320546001600160a01b031683526007909152902080546115e290600190613e73565b815481106115f2576115f2613dac565b60009182526020808320909101548b8352600582526040808420546001600160a01b031684526007909252912080548590811061163157611631613dac565b60009182526020808320909101929092558a8152600582526040808220546001600160a01b0316825260079092522080548061166f5761166f613f25565b6000828152602080822083016000199081018390559092019092558a8252600581526040808320546001600160a01b0316835260078252822060019081018054918201815583529120018990555b8115610c79576003600560008b81526020019081526020016000206002016040516116e89190613e8a565b908152602001604051809103902060000160016003600560008d81526020019081526020016000206002016040516117209190613e8a565b9081526040519081900360200190205461173a9190613e73565b8154811061174a5761174a613dac565b90600052602060002001546003600560008c815260200190815260200160002060020160405161177a9190613e8a565b9081526020016040518091039020600001828154811061179c5761179c613dac565b90600052602060002001819055506003600560008b8152602001908152602001600020600201604051610c449190613e8a565b600083815260056020818152604080842060068101879055928301805460ff191660011790556007909201849055338352600881528183206002018054835181840281018401909452808452849361185f939092919083018282801561185457602002820191906000526020600020905b815481526020019060010190808311611840575b5050505050866104d0565b90925090508115610c7e57336000908152600860205260409020600201805461188a90600190613e73565b8154811061189a5761189a613dac565b6000918252602080832090910154338352600890915260409091206002018054839081106118ca576118ca613dac565b60009182526020808320909101929092553381526008909152604090206002018054806118f9576118f9613f25565b600082815260208082208301600019908101839055909201909255338252600881526040808320805460018101825590845282842001889055878352600590915290819020905160049161195291600290910190613e8a565b9081526040516020918190038201902080546001810182556000918252919020019490945550505050565b6001600160a01b0381166000908152600660209081526040918290206002018054835181840281018401909452808452606093928301828280156105a857602002820191906000526020600020908154815260200190600101908083116105945750505050509050919050565b6001600160a01b0381166000908152600860209081526040918290206004018054835181840281018401909452808452606093928301828280156105a857602002820191906000526020600020908154815260200190600101908083116105945750505050509050919050565b606060028383604051611a6b929190613f9a565b9081526040805191829003602090810183208054808302850183019093528284529190830182828015611abd57602002820191906000526020600020905b815481526020019060010190808311611aa9575b5050505050905092915050565b6001600160a01b0381166000908152600860209081526040918290208054835181840281018401909452808452606093928301828280156105a857602002820191906000526020600020908154815260200190600101908083116105945750505050509050919050565b600080549080611b4383613dd8565b9091555050600083815260056020908152604080832081516101008101835281546001600160a01b031681526001820154938101939093526002810180549192840191611b8f90613df1565b80601f0160208091040260200160405190810160405280929190818152602001828054611bbb90613df1565b8015611c085780601f10611bdd57610100808354040283529160200191611c08565b820191906000526020600020905b815481529060010190602001808311611beb57829003601f168201915b50505091835250506003820154602082015260048201546040820152600582015460ff16151560608201526006820154608082015260079091015460a090910152805160005460c08301519293506001600160a01b03851692634616863092913391611c749089613e2b565b6040518563ffffffff1660e01b8152600401611c939493929190613e4a565b600060405180830381600087803b158015611cad57600080fd5b505af1158015611cc1573d6000803e3d6000fd5b50505060008581526005602052604081206004018054869350909190611ce8908490613e73565b909155505060408051610100810182523381526020808201878152848401518385019081526060840188905260808401889052600060a0850181905260c0850181905260e08501819052805481526005845294909420835181546001600160a01b0319166001600160a01b039091161781559051600182015592518051889492611d7992600285019291019061375e565b506060820151600382810191909155608083015160048084019190915560a08401516005808501805460ff19169215159290921790915560c085015160068086019190915560e0909501516007948501553360009081526020948552604080822082549501805460018181018355918452878420019590955588516001600160a01b0316825295855285812081546002919091018054958601815582528582209094019390935589835290925291822001549003610c7e576000858152600560209081526040808320546001600160a01b03168352600682528083208054825181850281018501909352808352849384938493611ead93919290919083018282801561098457602002820191906000526020600020908154815260200190600101908083116109705750505050508a6104d0565b60008b815260056020526040908190209051929650909450611ed9916002916109bf9190830190613e8a565b90925090508315611ff1576000898152600560209081526040808320546001600160a01b03168352600690915290208054611f1690600190613e73565b81548110611f2657611f26613dac565b60009182526020808320909101548b8352600582526040808420546001600160a01b0316845260069092529120805485908110611f6557611f65613dac565b60009182526020808320909101929092558a8152600582526040808220546001600160a01b03168252600690925220805480611fa357611fa3613f25565b6000828152602080822083016000199081018390559092019092558a8252600581526040808320546001600160a01b0316835260068252822060019081018054918201815583529120018990555b8115610c79576002600560008b815260200190815260200160002060020160405161201c9190613e8a565b908152602001604051809103902060000160016002600560008d81526020019081526020016000206002016040516120549190613e8a565b9081526040519081900360200190205461206e9190613e73565b8154811061207e5761207e613dac565b90600052602060002001546002600560008c81526020019081526020016000206002016040516120ae9190613e8a565b908152602001604051809103902060000182815481106120d0576120d0613dac565b90600052602060002001819055506002600560008b8152602001908152602001600020600201604051610c449190613e8a565b606060048383604051611a6b929190613f9a565b60008160405160200161212a9190613faa565b604051602081830303815290604052805190602001209050919050565b60008054908061215683613dd8565b91905055506002858560405161216d929190613f9a565b9081526040805191829003602090810183206000805482546001810184559282528382209092019190915561010084018352338452838201528151601f88018290048202810182018352878152918301919088908890819084018382808284376000920182905250938552505050602080830187905260408084018890526001606085018190526080850188905260a0909401869052825483526005825291829020845181546001600160a01b0319166001600160a01b03909116178155848201519381019390935590830151805161224c926002850192019061375e565b50606082015160038201556080820151600482015560a082015160058201805460ff191691151591909117905560c082015160068083019190915560e0909201516007909101553360008181526020928352604080822082548154600181018355918452858420909101559054905190815290917fd06c068ab8d1e2eac8fa5683a13cd88fd3cec89948d5cf90880b3b9310108a8e910160405180910390a25050505050565b6001600160a01b0381166000908152600860209081526040918290206001018054835181840281018401909452808452606093928301828280156105a857602002820191906000526020600020908154815260200190600101908083116105945750505050509050919050565b606060038383604051611a6b929190613f9a565b6001600160a01b0381166000908152600860209081526040918290206002018054835181840281018401909452808452606093928301828280156105a857602002820191906000526020600020908154815260200190600101908083116105945750505050509050919050565b600083815260056020818152604080842060068101879055928301805460ff1916600117905560079283018590553384529181528183206002018054835181840281018401909452808452849361246d93909291908301828280156118545760200282019190600052602060002090815481526020019060010190808311611840575050505050866104d0565b90925090508115610c7e57336000908152600760205260409020600201805461249890600190613e73565b815481106124a8576124a8613dac565b6000918252602080832090910154338352600790915260409091206002018054839081106124d8576124d8613dac565b600091825260208083209091019290925533815260079091526040902060020180548061250757612507613f25565b600082815260208082208301600019908101839055909201909255338252600781526040808320805460018101825590845282842001889055878352600590915290819020905160039161195291600290910190613e8a565b6005602052600090815260409020805460018201546002830180546001600160a01b0390931693919261259290613df1565b80601f01602080910402602001604051908101604052809291908181526020018280546125be90613df1565b801561260b5780601f106125e05761010080835404028352916020019161260b565b820191906000526020600020905b8154815290600101906020018083116125ee57829003601f168201915b50505060038401546004850154600586015460068701546007909701549596929591945060ff16925088565b6001818154811061264757600080fd5b90600052602060002001600091509050805461266290613df1565b80601f016020809104026020016040519081016040528092919081815260200182805461268e90613df1565b80156126db5780601f106126b0576101008083540402835291602001916126db565b820191906000526020600020905b8154815290600101906020018083116126be57829003601f168201915b505050505081565b6001600160a01b0381166000908152600960209081526040918290206001018054835181840281018401909452808452606093928301828280156105a857602002820191906000526020600020908154815260200190600101908083116105945750505050509050919050565b6001600160a01b0381166000908152600760209081526040918290206004018054835181840281018401909452808452606093928301828280156105a857602002820191906000526020600020908154815260200190600101908083116105945750505050509050919050565b6001600160a01b0381166000908152600860209081526040918290206003018054835181840281018401909452808452606093928301828280156105a857602002820191906000526020600020908154815260200190600101908083116105945750505050509050919050565b600083815260056020908152604080832081516101008101835281546001600160a01b03168152600182015493810193909352600281018054919284019161287190613df1565b80601f016020809104026020016040519081016040528092919081815260200182805461289d90613df1565b80156128ea5780601f106128bf576101008083540402835291602001916128ea565b820191906000526020600020905b8154815290600101906020018083116128cd57829003601f168201915b50505091835250506003820154602080830191909152600483015460408084019190915260058085015460ff16151560608501526006850154608085015260079094015460a090930192909252835184820151600090815293825282842083516101008101855281546001600160a01b03168152600182015493810193909352600281018054969750919592939092908401919061298790613df1565b80601f01602080910402602001604051908101604052809291908181526020018280546129b390613df1565b8015612a005780601f106129d557610100808354040283529160200191612a00565b820191906000526020600020905b8154815290600101906020018083116129e357829003601f168201915b505050918352505060038201546020820152600480830154604080840191909152600584015460ff16151560608401526006840154608084015260079093015460a0909201919091528251915163c4c89c8160e01b815292935090916001600160a01b0387169163c4c89c8191612a7f91859188918c918e9101613f3b565b6020604051808303816000875af1158015612a9e573d6000803e3d6000fd5b505050506040513d601f19601f82011682018060405250810190612ac29190613f78565b50600080600080612b4760076000876001600160a01b03166001600160a01b03168152602001908152602001600020600401805480602002602001604051908101604052809291908181526020018280548015610f995760200282019190600052602060002090815481526020019060010190808311610f855750505050508c6104d0565b6001600160a01b0389166000908152600860209081526040918290206003018054835181840281018401909452808452949850929650612bbd9391929190830182828015610f995760200282019190600052602060002090815481526020019060010190808311610f855750505050508c6104d0565b9092509050838015612bcc5750835b156111f3576001600160a01b03851660009081526007602052604090206004018054612bfa90600190613e73565b81548110612c0a57612c0a613dac565b906000526020600020015460076000876001600160a01b03166001600160a01b031681526020019081526020016000206004018481548110612c4e57612c4e613dac565b60009182526020808320909101929092556001600160a01b0387168152600790915260409020600401805480612c8657612c86613f25565b6000828152602080822083016000199081018390559092019092556001600160a01b038916825260089052604090206003018054612cc690600190613e73565b81548110612cd657612cd6613dac565b906000526020600020015460086000896001600160a01b03166001600160a01b031681526020019081526020016000206003018481548110612d1a57612d1a613dac565b60009182526020808320909101929092556001600160a01b0389168152600890915260409020600301805480612d5257612d52613f25565b6000828152602080822083016000199081018390559092019092556001600160a01b0389168252600881526040822060020180546001810182559083529120018b90555050505050505050505050565b6001600160a01b0381166000908152600760209081526040918290206002018054835181840281018401909452808452606093928301828280156105a857602002820191906000526020600020908154815260200190600101908083116105945750505050509050919050565b600083815260056020908152604080832081516101008101835281546001600160a01b031681526001820154938101939093526002810180549192840191612e5690613df1565b80601f0160208091040260200160405190810160405280929190818152602001828054612e8290613df1565b8015612ecf5780601f10612ea457610100808354040283529160200191612ecf565b820191906000526020600020905b815481529060010190602001808311612eb257829003601f168201915b50505091835250506003820154602080830191909152600483015460408084019190915260058085015460ff16151560608501526006850154608085015260079094015460a090930192909252835184820151600090815293825282842083516101008101855281546001600160a01b031681526001820154938101939093526002810180549697509195929390929084019190612f6c90613df1565b80601f0160208091040260200160405190810160405280929190818152602001828054612f9890613df1565b8015612fe55780601f10612fba57610100808354040283529160200191612fe5565b820191906000526020600020905b815481529060010190602001808311612fc857829003601f168201915b505050918352505060038201546020820152600480830154604080840191909152600584015460ff16151560608401526006840154608084015260079093015460a0909201919091528251915163c4c89c8160e01b815292935090916001600160a01b0387169163c4c89c819161306491859188918c918e9101613f3b565b6020604051808303816000875af1158015613083573d6000803e3d6000fd5b505050506040513d601f19601f820116820180604052508101906130a79190613f78565b5060008060008061312c60086000876001600160a01b03166001600160a01b03168152602001908152602001600020600401805480602002602001604051908101604052809291908181526020018280548015610f995760200282019190600052602060002090815481526020019060010190808311610f855750505050508c6104d0565b6001600160a01b03891660009081526009602090815260409182902060010180548351818402810184019094528084529498509296506131a29391929190830182828015610f995760200282019190600052602060002090815481526020019060010190808311610f855750505050508c6104d0565b90925090508380156131b15750835b156111f3576001600160a01b038516600090815260086020526040902060040180546131df90600190613e73565b815481106131ef576131ef613dac565b906000526020600020015460086000876001600160a01b03166001600160a01b03168152602001908152602001600020600401848154811061323357613233613dac565b60009182526020808320909101929092556001600160a01b038716815260089091526040902060040180548061326b5761326b613f25565b6000828152602080822083016000199081018390559092019092556001600160a01b038916825260099052604090206001908101805490916132ac91613e73565b815481106132bc576132bc613dac565b906000526020600020015460096000896001600160a01b03166001600160a01b03168152602001908152602001600020600101848154811061330057613300613dac565b60009182526020808320909101929092556001600160a01b038916815260099091526040902060010180548061333857613338613f25565b6000828152602080822083016000199081018390559092019092556001600160a01b0389168252600981526040822080546001810182559083529120018b90555050505050505050505050565b60606000825167ffffffffffffffff8111156133a3576133a36137f7565b60405190808252806020026020018201604052801561342757816020015b61341460405180610100016040528060006001600160a01b031681526020016000815260200160608152602001600081526020016000815260200160001515815260200160008152602001600081525090565b8152602001906001900390816133c15790505b50905060005b83518110156135a95760006005600086848151811061344e5761344e613dac565b60200260200101518152602001908152602001600020905080604051806101000160405290816000820160009054906101000a90046001600160a01b03166001600160a01b03166001600160a01b03168152602001600182015481526020016002820180546134bc90613df1565b80601f01602080910402602001604051908101604052809291908181526020018280546134e890613df1565b80156135355780601f1061350a57610100808354040283529160200191613535565b820191906000526020600020905b81548152906001019060200180831161351857829003601f168201915b50505091835250506003820154602082015260048201546040820152600582015460ff16151560608201526006820154608082015260079091015460a090910152835184908490811061358a5761358a613dac565b60200260200101819052505080806135a190613dd8565b91505061342d565b5092915050565b6001600160a01b0381166000908152600960209081526040918290208054835181840281018401909452808452606093928301828280156105a857602002820191906000526020600020908154815260200190600101908083116105945750505050509050919050565b6001600160a01b0381166000908152600760209081526040918290208054835181840281018401909452808452606093928301828280156105a857602002820191906000526020600020908154815260200190600101908083116105945750505050509050919050565b6001600160a01b0381166000908152600760209081526040918290206001018054835181840281018401909452808452606093928301828280156105a857602002820191906000526020600020908154815260200190600101908083116105945750505050509050919050565b6001600160a01b0381166000908152600660209081526040918290206001018054835181840281018401909452808452606093928301828280156105a857602002820191906000526020600020908154815260200190600101908083116105945750505050509050919050565b82805461376a90613df1565b90600052602060002090601f01602090048101928261378c57600085556137d2565b82601f106137a557805160ff19168380011785556137d2565b828001600101855582156137d2579182015b828111156137d25782518255916020019190600101906137b7565b506137de9291506137e2565b5090565b5b808211156137de57600081556001016137e3565b634e487b7160e01b600052604160045260246000fd5b604051601f8201601f1916810167ffffffffffffffff81118282101715613836576138366137f7565b604052919050565b600082601f83011261384f57600080fd5b8135602067ffffffffffffffff82111561386b5761386b6137f7565b8160051b61387a82820161380d565b928352848101820192828101908785111561389457600080fd5b83870192505b848310156138b35782358252918301919083019061389a565b979650505050505050565b600080604083850312156138d157600080fd5b823567ffffffffffffffff8111156138e857600080fd5b6138f48582860161383e565b95602094909401359450505050565b80356001600160a01b038116811461391a57600080fd5b919050565b60006020828403121561393157600080fd5b61393a82613903565b9392505050565b6020808252825182820181905260009190848201906040850190845b818110156139795783518352928401929184019160010161395d565b50909695505050505050565b60008060006060848603121561399a57600080fd5b83359250602084013591506139b160408501613903565b90509250925092565b600067ffffffffffffffff8311156139d4576139d46137f7565b6139e7601f8401601f191660200161380d565b90508281528383830111156139fb57600080fd5b828260208301376000602084830101529392505050565b600080600060608486031215613a2757600080fd5b83359250602084013567ffffffffffffffff811115613a4557600080fd5b8401601f81018613613a5657600080fd5b613a65868235602084016139ba565b9250506139b160408501613903565b600080600060608486031215613a8957600080fd5b505081359360208301359350604090920135919050565b60008083601f840112613ab257600080fd5b50813567ffffffffffffffff811115613aca57600080fd5b602083019150836020828501011115613ae257600080fd5b9250929050565b60008060208385031215613afc57600080fd5b823567ffffffffffffffff811115613b1357600080fd5b613b1f85828601613aa0565b90969095509350505050565b600060208284031215613b3d57600080fd5b813567ffffffffffffffff811115613b5457600080fd5b8201601f81018413613b6557600080fd5b613b74848235602084016139ba565b949350505050565b600080600080600060808688031215613b9457600080fd5b853567ffffffffffffffff811115613bab57600080fd5b613bb788828901613aa0565b9099909850602088013597604081013597506060013595509350505050565b600060208284031215613be857600080fd5b5035919050565b60005b83811015613c0a578181015183820152602001613bf2565b83811115613c19576000848401525b50505050565b60008151808452613c37816020860160208601613bef565b601f01601f19169290920160200192915050565b6001600160a01b03891681526020810188905261010060408201819052600090613c778382018a613c1f565b60608401989098525050608081019490945291151560a084015260c083015260e0909101529392505050565b60208152600061393a6020830184613c1f565b600060208284031215613cc857600080fd5b813567ffffffffffffffff811115613cdf57600080fd5b613b748482850161383e565b60006020808301818452808551808352604092508286019150828160051b87010184880160005b83811015613d9e57888303603f19018552815180516001600160a01b0316845287810151888501528681015161010088860181905290613d5482870182613c1f565b606084810151908801526080808501519088015260a08085015115159088015260c0808501519088015260e093840151939096019290925250509386019390860190600101613d12565b509098975050505050505050565b634e487b7160e01b600052603260045260246000fd5b634e487b7160e01b600052601160045260246000fd5b600060018201613dea57613dea613dc2565b5060010190565b600181811c90821680613e0557607f821691505b602082108103613e2557634e487b7160e01b600052602260045260246000fd5b50919050565b6000816000190483118215151615613e4557613e45613dc2565b500290565b6001600160a01b0394851681529290931660208301526040820152606081019190915260800190565b600082821015613e8557613e85613dc2565b500390565b600080835481600182811c915080831680613ea657607f831692505b60208084108203613ec557634e487b7160e01b86526022600452602486fd5b818015613ed95760018114613eea57613f17565b60ff19861689528489019650613f17565b60008a81526020902060005b86811015613f0f5781548b820152908501908301613ef6565b505084890196505b509498975050505050505050565b634e487b7160e01b600052603160045260246000fd5b6001600160a01b03858116825284166020820152608060408201819052600090613f6790830185613c1f565b905082606083015295945050505050565b600060208284031215613f8a57600080fd5b8151801515811461393a57600080fd5b8183823760009101908152919050565b60008251613fbc818460208701613bef565b919091019291505056fea26469706673582212200fadfba3d3659785a80a2902040139397a5dd91ee1ed52c57ec817a7afe4d48864736f6c634300080e0033",
    "sourcePath": "/home/mrbnf/Documents/myapp/SupplyChain/supplychain/contracts/SupplyChain.sol",
    "compiler": {
        "name": "solc",
        "version": "0.8.14+commit.80d49f37"
    },
    "functionHashes": {
        "buyProductCustomers(uint256,uint256,address)": "333f9269",
        "buyProductRetailer(uint256,uint256,address)": "37d684a5",
        "buyProductWholesaler(uint256,uint256,address)": "5751bfdc",
        "customersHistory(address)": "cc9c0023",
        "customersToReceive(address)": "8695c4d2",
        "farmerAddProduct(string,uint256,uint256,uint256)": "6996f77e",
        "farmerConfirmSending(uint256,bytes,address)": "35da8079",
        "farmersHistory(address)": "f5221a87",
        "farmersProductsForSale(address)": "2d02388a",
        "farmersProductsListe(string)": "4cb3eadc",
        "farmersToSend(address)": "4a3d2b5a",
        "finalID()": "33a4d991",
        "getHash(string)": "5b6beeb9",
        "productDatafromList(uint256[])": "c0932740",
        "productTypes(uint256)": "7c09b0bb",
        "productsData(uint256)": "779b8202",
        "retailerConfirmSending(uint256,bytes,address)": "ba438a07",
        "retailerFromStockToSale(uint256,uint256,uint256)": "438dd8d5",
        "retailerHistory(address)": "6b5ea439",
        "retailerStock(address)": "6e6072ed",
        "retailerToReceive(address)": "a84acf52",
        "retailerToSend(address)": "4c7eed18",
        "retailersProductsListe(string)": "5aa8e244",
        "retailersproductsForSale(address)": "4d2ef0f1",
        "retreiveIndex(uint256[],uint256)": "196ad2fd",
        "wholeSalerConfirmSending(uint256,bytes,address)": "aa589923",
        "wholeSalerFromStockToSale(uint256,uint256,uint256)": "70c3f348",
        "wholeSalerHistory(address)": "eb87f969",
        "wholeSalerStock(address)": "b887b23c",
        "wholeSalerToReceive(address)": "25db31a6",
        "wholeSalerToSend(address)": "88191b70",
        "wholeSalerproductsForSale(address)": "decd924b",
        "wholesalersProductsListe(string)": "6dba2783"
    },
    "gasEstimates": {
        "creation": {
            "codeDepositCost": "3276000",
            "executionCost": "infinite",
            "totalCost": "infinite"
        },
        "external": {
            "buyProductCustomers(uint256,uint256,address)": "infinite",
            "buyProductRetailer(uint256,uint256,address)": "infinite",
            "buyProductWholesaler(uint256,uint256,address)": "infinite",
            "customersHistory(address)": "infinite",
            "customersToReceive(address)": "infinite",
            "farmerAddProduct(string,uint256,uint256,uint256)": "infinite",
            "farmerConfirmSending(uint256,bytes,address)": "infinite",
            "farmersHistory(address)": "infinite",
            "farmersProductsForSale(address)": "infinite",
            "farmersProductsListe(string)": "infinite",
            "farmersToSend(address)": "infinite",
            "finalID()": "2341",
            "getHash(string)": "infinite",
            "productDatafromList(uint256[])": "infinite",
            "productTypes(uint256)": "infinite",
            "productsData(uint256)": "infinite",
            "retailerConfirmSending(uint256,bytes,address)": "infinite",
            "retailerFromStockToSale(uint256,uint256,uint256)": "infinite",
            "retailerHistory(address)": "infinite",
            "retailerStock(address)": "infinite",
            "retailerToReceive(address)": "infinite",
            "retailerToSend(address)": "infinite",
            "retailersProductsListe(string)": "infinite",
            "retailersproductsForSale(address)": "infinite",
            "retreiveIndex(uint256[],uint256)": "infinite",
            "wholeSalerConfirmSending(uint256,bytes,address)": "infinite",
            "wholeSalerFromStockToSale(uint256,uint256,uint256)": "infinite",
            "wholeSalerHistory(address)": "infinite",
            "wholeSalerStock(address)": "infinite",
            "wholeSalerToReceive(address)": "infinite",
            "wholeSalerToSend(address)": "infinite",
            "wholeSalerproductsForSale(address)": "infinite",
            "wholesalersProductsListe(string)": "infinite"
        },
        "internal": {
            "toString(uint256)": "infinite"
        }
    }
}